:020000040800F2
:1000000088FA00208102000813380008A92A000895
:1000100011380008E7080008AD470008000000009C
:10002000000000000000000000000000C101000806
:10003000390A0008000000001D0200089D3C00086D
:100040009B0200089B0200089B0200089B0200081C
:100050009B0200089B0200089B0200089B0200080C
:100060009B0200089B0200089B020008010900088F
:100070000D09000819090008250900089B0200085D
:10008000310900089B0200089B0200089B0200083F
:100090009B0200089B0200089B0200089B020008CC
:1000A0009B0200086D4100089B0200089B020008AB
:1000B0009B0200089B0200089B0200089B020008AC
:1000C0009B0200089B0200089B0200089B0200089C
:1000D0009B0200084D470008594700087547000873
:1000E0009B0200089B0200089B0200089B0200087C
:1000F0009B0200089B0200089B0200089B0200086C
:100100009B0200089B0200089B0200089B0200085B
:10011000414200085D4200089B0200089B02000863
:100120009B0200083D0900089B0200089B02000892
:100130009B0200089B0200089B0200089B0200082B
:100140009B0200089B0200089B0200089B0200081B
:100150009B0200089B0200089B02000891470008D0
:100160009B0200089B0200089B0200089B020008FB
:100170009B0200089B0200089B0200080000000090
:100180009B0200089B020008694200089B020008CD
:100190009B0200089B0200089B0200089B020008CB
:1001A0009B0200089B0200089B020008DFF80CD0AD
:1001B00000F04AFB004800470D58000888FA00206C
:1001C0002C4B19680868B0E8F04F80F30988BFF33A
:1001D0006F8F4FF0000080F311887047000000001F
:1001E00008480068006880F308884FF0000080F33A
:1001F000148862B661B6BFF34F8FBFF36F8F00DF15
:1002000000BF00BF08ED00E0DFF80C00016841F41A
:1002100070010160704700BF88ED00E0EFF30980D6
:10022000BFF36F8F134B1A681EF0100F08BF20ED3D
:10023000108A20E9F04F106009B44FF0500080F3AD
:100240001188BFF34F8FBFF36F8F06F087FD4FF01C
:10025000000080F3118809BC19680868B0E8F04F05
:100260001EF0100F08BFB0EC108A80F30988BFF3AE
:100270006F8F704720000020EFF30580704700006B
:100280000648804706480047FEE7FEE7FEE7FEE730
:10029000FEE7FEE7FEE7FEE7FEE7FEE7713D00084A
:1002A000AD0100082DE9F05F0546002092469B460F
:1002B00088460646814640241BE02846414647467C
:1002C000224600F09CF853465A46C01A914110D37A
:1002D00011461846224600F083F82D1A67EB0108F4
:1002E0004F4622460120002100F07AF817EB000962
:1002F0004E41201EA4F10104DFDC484631462A4667
:100300004346BDE8F09F40EA01039B0703D009E0A4
:1003100008C9121F08C0042AFAD203E011F8013BF1
:1003200000F8013B521EF9D27047D2B201E000F84A
:10033000012B491EFBD270470022F6E710B5134689
:100340000A4604461946FFF7F0FF204610BD30B5B7
:1003500005462A460B4612F8010B13F8014B08B16B
:10036000A042F8D01CB1002802D06D1CF1E728464D
:1003700030BD421C10F8011B0029FBD1801A7047C8
:10038000034611F8012B00F8012B002AF9D1184679
:1003900070470EB5C10F80EAE0700844CA0700211B
:1003A00040F233438DE80E000A460B4600F046F853
:1003B00003B000BD30B50B460146002020220124C9
:1003C00009E021FA02F59D4205D303FA02F5491B23
:1003D00004FA02F52844151EA2F10102F1DC30BD39
:1003E000202A04DB203A00FA02F1002070479140F5
:1003F000C2F1200320FA03F3194390407047202AEA
:1004000004DB203A21FA02F00021704721FA02F3BE
:10041000D040C2F12002914008431946704710B500
:10042000141E73F1000408DA401C41F10001921817
:100430005B411A4301D120F0010010BD2DE9F04DC0
:1004400092469B4611B1B1FA81F202E0B0FA80F215
:1004500020329046FFF7C4FF04460F4640EA0A00E8
:1004600041EA0B0153465A46084313D0114653EA5A
:10047000010019D0C8F140025046FFF7C0FF054601
:100480000E46504659464246FFF7AAFF084305D09C
:10049000012004E020463946BDE8F08D00200543E8
:1004A00046EAE0762C4337430A986305E40AA0EB5A
:1004B00008000022FD0A44EA47540A3002D5002011
:1004C0000146E9E7010510196941DDE90845001910
:1004D0006941BDE8F04DA2E72DE9FE4F804681EA73
:1004E0000300C00F0C46009021F0004123F00045AE
:1004F000B8EB0200A94105D24046214690461C4671
:100500000B46024623F00040104347D0270DC7F3A7
:100510000A00C3F30A510290401A019040286BDA96
:10052000C3F3130040F4801B0098924620B10023CF
:10053000D2EB030A63EB0B0B01985946C0F1400262
:100540005046FFF74DFF06460D4650465946019A64
:1005500000F08CF910EB08006141002487EA115289
:1005600084EAE7731A4340D0009A62B3019A012AE1
:100570004FEA075215DC001B61EB02014FF000420D
:1005800002EA0752CDE90042001C41F580113246D3
:100590002B46FFF753FF03B0BDE8F08F40462146DE
:1005A000F9E7001B61EB0201001C41F58013001804
:1005B0005B412018A2F5001747EB030140EAD57014
:1005C000B6196D4111E06D084FEA360645EAC0756F
:1005D0004FEA0752001B61EB0201001C41F580113C
:1005E00049084FEA30000019514132462B4603B00A
:1005F000BDE8F04FFFF713BF009801224000002331
:10060000D0EB020263EBE073009821464FEAE074FE
:10061000B8EB000061EB0401E9E783F000435BE71E
:1006200081F0004158E72DE9FE4F81EA030404F010
:10063000004421F0004100944FF0000B23F00043F0
:1006400050EA01045ED052EA03045BD0C3F30A54BB
:10065000C1F30A552C44A4F2F3340194A0FB0254D4
:10066000C1F3130141F48011C3F3130343F4801366
:1006700001FB024400FB034E840A970A44EA8154BA
:1006800047EA8357A4FB076802958D0A05FB078597
:100690004FEA932C04FB0C542705029D4FEA0658A1
:1006A00047EA1637B5EB08056EEB070C870E920E7E
:1006B00047EA811742EA8312A7FB0201B6EB0B015E
:1006C00064EB00042B0D43EA0C335E1844EB1C5022
:1006D000DA465146E7FB0201C5F313044FEA0B3338
:1006E00043EA14534FEA0432019C43EA0603A4F19F
:1006F0000C040294009CCDE900B4FFF79FFE03B008
:10070000BDE8F08F00200146F9E72DE9F04D81EAC0
:10071000030404F0004B21F0004514464FF0000A9A
:1007200023F0004150EA050220D054EA01021DD016
:10073000C5F30A570246C5F31303C1F31300C1F30F
:100740000A5640F4801543F48013A7EB0608101BEB
:10075000D64608F2FD3873EB050002D308F1010814
:1007600001E092185B41B8F1000F03DA0020014666
:10077000BDE8F08D00204FF48011064684460EE05F
:10078000171B73EB050705D3121B63EB0503064329
:100790004CEA010C49084FEA300092185B4150EADC
:1007A0000107EDD152EA030012D082EA040083EA85
:1007B0000501084305D0101BAB4106D201220023DE
:1007C00006E000224FF0004302E06FF001025310F8
:1007D0001AEB06004CEB085110EB0A0041EB0B0141
:1007E000BDE8F04DFFF71BBEC1F30A52C1F3130180
:1007F00040F2FF3341F480119A4202DA00200146B0
:10080000704740F233439A42A2F2334202DC524232
:10081000FFF7F5BDFFF7E4BD30B5041E71F100042C
:1008200004DB4FF00044404264EB0101141E73F1FD
:10083000000405DB1C464FF00043524263EB040307
:10084000994208BF904230BD064C074D06E0E06873
:1008500040F0010394E8070098471034AC42F6D307
:10086000FFF7A8FC1079000830790008202A06DB81
:10087000CB17203A41FA02F043EAE07306E041FA6E
:1008800002F3D040C2F1200291400843194670475C
:1008900070B58C1810F8015B15F0070301D110F842
:1008A000013B2A1106D110F8012B03E010F8016B6F
:1008B00001F8016B5B1EF9D12B0705D40023521EF2
:1008C0000DD401F8013BFAE710F8013BCB1A921C5A
:1008D00003E013F8015B01F8015B521EF9D5A14258
:1008E000D8D3002070BDFEE770B50C46054603F076
:1008F000FBF820EA04012846BDE8704003F076BF0B
:10090000014800F0FBB80000A4040020014800F0FA
:10091000F5B80000C4050020014800F0EFB8000061
:1009200044040020014800F0E9B80000040500205C
:10093000014800F0E3B8000064050020014800F021
:10094000DDB800002406002001681823CAB2103A5E
:10095000B2FBF3F2054B6FF30901032A9B5CC365FD
:1009600000D9091D8165084670470000F47700082A
:1009700010B5014600208B698A6A4FF0C07453B1EC
:10098000B3F5005F15D072B1012A0CD0022A0AD04B
:10099000032A09D104E01AB1012A06D0022A03D1A0
:1009A000C96AC90100D5012010BDC96AA142FAD0A7
:1009B00010BD002AF7D0012AF2D0022AF3D0032A70
:1009C000F3D010BD10B50C46811D4FF4FA622046DD
:1009D00001F0BEFF2068C16841F01001C16010BD88
:1009E00030B50468256825F48025256004686360B7
:1009F0008368402B036803D099600068C26030BDF3
:100A00009A600068C16030BD01490248FFF7DABF53
:100A10008403002062BE002001490248FFF7D2BFD4
:100A2000C403002058AE002001490248FFF7CABFA6
:100A3000040400206CCE0020704770470149881FD5
:100A400004F07EBE5EAE00202DE9F0410446876DC5
:100A500000F0C8FA064694F835000025022806D0B2
:100A60008020606584F834500120BDE8F081206862
:100A7000016821F0160101602068416921F08001C0
:100A80004161206C08B9A06C20B12068016821F098
:100A9000080101602068016821F0010101600BE09C
:100AA00000F0A0FA801B052806D92020606504F814
:100AB000345F03206070D8E720680068C007EFD17A
:100AC00094F85C103F208840B86004F8345F01203F
:100AD00060700020C9E790F83510022903D080210A
:100AE000416501207047052180F8351000680168D4
:100AF00021F0010101600020704700002DE9F8435A
:100B000004464FF00009CDF8009063484FF41651A9
:100B1000A56D0068B0FBF1F72E6894F85C10082012
:100B200000FA01F131420FD021680A6852070BD553
:100B30000A6822F004020A6094F85C108840A860F9
:100B4000606D40F00100606594F85C104FF00108A2
:100B500008FA01F0304208D021684969090604D535
:100B6000A860606D40F00200606594F85C1004209D
:100B70008840304208D021680968890704D5A860F8
:100B8000606D40F00400606594F85C1010208840AF
:100B9000304218D021680968090714D5A860206878
:100BA0000168490304D50068000308D5A16C07E07B
:100BB0000168C90503D4016821F008010160216CB6
:100BC00009B12046884794F85C10202088403042C4
:100BD00031D021680968C9062DD5A86094F8350080
:100BE00005282068016806D0490347D5006800033E
:100BF0001DD4616C1CE021F0160101602068416980
:100C000021F080014161206C08B9A06C20B12068FE
:100C1000016821F00801016094F85C103F208840D1
:100C2000A86084F8349084F83580216D1FE0E16B72
:100C300009B120468847606D00282BD0606DC00741
:100C400014D0052084F835002068016821F00101E6
:100C500001600098401C0090B84203D820680068EA
:100C6000C007F6D184F8349084F83580E16C00290F
:100C700010D001B02046BDE8F04308470168C9051F
:100C8000D5D4016821F01001016084F8349084F813
:100C90003580CCE7BDE8F8831C0000202DE9F04149
:100CA000044600F09FF906465CB1002584F83450F4
:100CB000022084F835002068016821F001010160FC
:100CC0000DE00120BDE8F08100F08CF9801B0528C3
:100CD00005D920206065032084F83500F2E72068FC
:100CE0000068C007F0D12268116820480140D4E9AB
:100CF00001031843D4E903363343184363691843A7
:100D0000A3691843E3691843236A18430843616AD7
:100D1000042903D1D4E90B13194308431060206858
:100D20004069666A20F0070130460E430127042817
:100D30000CD1A06A0643E06A40B12046FFF718FED6
:100D400020B14020606584F83570BAE720684661BC
:100D50002046FFF7F9FD94F85C203F219140816027
:100D6000656584F835700020ACE700003F8010F026
:100D70002DE9F0410446866D90F8340000250128E5
:100D80000DD0012084F8340094F835700020012F34
:100D900007D084F8340002252846BDE8F0810220FF
:100DA000FBE7022784F8357060652046FFF718FEE0
:100DB00094F85C103F208840B0602068016841F0E2
:100DC000160101602068416941F080014161206C99
:100DD00020B12068016841F00801016020680168C5
:100DE00041F001010160D7E770B5044600F0FAF860
:100DF0000546601C02D004480078044400F0F2F874
:100E0000401BA042FAD370BD100000202DE9F84F1E
:100E1000DFF890B100224FF001084FF0030A4FF0C5
:100E20000F090BF1040E00BF0B6808FA02F423400F
:100E3000A3426ED14D68022D01D0122D0ED1D508DE
:100E400000EB850CDCF820505607F70E09FA07F680
:100E5000B5430E69BE402E43CCF8206006685500AD
:100E60000F790AFA05FC07F0030726EA0C06AF40E3
:100E7000374307604E68012E05D0022E03D0112E95
:100E800001D0122E0ED18768CE6827EA0C07AE403B
:100E90003E4386604668A6430C79C4F30014944030
:100EA00034434460C4688E6824EA0C04AE40264390
:100EB000C6604C68E4006FD53B4C256845F480451E
:100EC0002560246822F0030504F480440094374C24
:100ED0002E19D6F8084895072F0F09FA07F5AC43E5
:100EE000334DA84201D100252EE0324DA84201D158
:100EF000012529E0304DA84201D1022524E02F4DE3
:100F0000A84201D103251FE02D4DA84202D104259E
:100F10001AE041E02B4DA84201D1052514E02A4DED
:100F2000A84201D106250FE0284DA84201D107258E
:100F30000AE0274DA84201D1082505E0254DA84229
:100F400001D1092500E00A25BD402543C6F808580F
:100F5000DBF800405D464E689C43F60300D51C4319
:100F60002C60DEF8004075464E689C43B60300D501
:100F70001C432C600B4D08352C684E689C43F602D0
:100F800000D51C432C60074D0C352C684E689C43E3
:100F9000B60200D51C432C60521C102AFFF444AF4B
:100FA000BDE8F88F003C0140443802400030014069
:100FB000000002400004024000080240000C024011
:100FC000001002400014024000180240001C0240C1
:100FD00000200240002402400AB1816170470904E8
:100FE000FBE7000001488068704700001000002007
:100FF0000248816802781144816070471000002027
:101000000B4810B5016841F400710160016841F4BA
:1010100080610160016841F480710160032000F08B
:101020008DF8002000F006F800F03EF8002010BD1A
:10103000003C024010B5014688B00022192000F0A3
:101040005DF8192000F04CF813480024016841F0C5
:1010500001010160006805A900F0010006906846E2
:1010600000F06EFA00F09CFA0C494000B0FBF1F180
:101070000C480B4A491E026040F2E732C0E90324E3
:10108000C0E9011401F0E9F810B1012008B010BD69
:10109000044801F0FEF8F9E74438024040420F00EE
:1010A00000000140840600200C4882B0016841F431
:1010B00080410160006800F4804000900748001FF4
:1010C000016841F0805101600068002200F080500A
:1010D00000900F21901E02B000F010B8443802407A
:1010E000002809DB00F01F02012191404009800027
:1010F00000F1E020C0F8001170470000F0B40E4B82
:101100001B680C46C3F30223C3F10705042D00D965
:101110000425191D072901D2002300E0DB1E01264A
:1011200006FA05F1491E214099409E40761E164060
:101130003143F0BC03F098BB0CED00E0064900F031
:10114000070208684FF6FF03184040EA0220034AEE
:1011500010430860704700000CED00E00000FA0545
:101160002DE9F8431748016841F08051016000689B
:10117000154F00F08050012600903E64FFF732FFCB
:1011800005464FF47A78114C05E000BFFFF72AFFBF
:10119000401B40450DD86068C003F7D57E64FFF75B
:1011A00021FF0546464607E0FFF71CFF401BB04203
:1011B00002D90320BDE8F88360688003F4D50020DD
:1011C000F8E700004038024000000E420070004086
:1011D0002DE9F84F04460068DFF804A2814F824DE4
:1011E000C1074FF001084FF0000601D180073CD540
:1011F000CAF86860FFF7F6FE814605E0FFF7F2FEE9
:10120000A0EB0900022878D828680001F6D42078DD
:10121000C107764805D06168227A890141EA0271E6
:1012200001602178890711D501686268237B9201EA
:10123000C1F3027142EA036242EA01710160386857
:10124000E16920F01F00491E08433860CAF8688031
:10125000FFF7C8FE814605E0FFF7C4FEA0EB0900DA
:1012600002284AD828680001F6D52068410701D431
:1012700000074CD5CAF87060FFF7B4FE814605E060
:10128000FFF7B0FEA0EB0900022836D82868C0435B
:101290008000F5D520784107554814D501682269AA
:1012A000237D9201C1F3027142EA036242EA0171B5
:1012B00001603968226A6FF0FF0321F4F85103EBF3
:1012C0000222114339602178090710D5016822698B
:1012D000C1F30361920142EA0161227E41EA027197
:1012E00001603868616A20F4403008433860CAF809
:1012F0007080FFF777FE074605E048E0FFF772FED3
:10130000C01B022843D82868C0438000F6D4207848
:10131000800653D534484030016841F08051016067
:101320000068344D00F080500090286840F48070D0
:101330002860FFF757FE074605E000BFFFF752FEA3
:10134000C01B022823D82868C005F7D5274D143DB7
:10135000286810F4407020D0218D01F44071814242
:101360001BD02868244920F44070C1F800800E602A
:1013700028602868C00710D0FFF734FE064641F207
:10138000883707E0FFF72EFE801BB84202D9032002
:10139000BDE8F88F28688007F4D5A16A1248C1F328
:1013A00001220830032A13D0016821F4F8110160EA
:1013B0002868218DC1F30B01084328602078C006FE
:1013C00004D50E4994F82C00C1F8E0010020DFE7B5
:1013D00002680B4B22F4F81219400A430260E7E757
:1013E000000047428C3802400038024084380240F6
:1013F0008838024000700040400E474200104742CB
:10140000FFFCFF0F2DE9F0470E46050065D0DFF821
:101410001481D8F80000F7B200F00F00B04207D2F4
:1014200088F80070D8F8000000F00F00B04254D1E6
:1014300028683D4C810712D5400703D5206840F449
:10144000E05020602878000703D5206840F4604011
:1014500020602068A96820F0F00008432060287808
:10146000C0072DD0304968680839012812D00228F9
:1014700013D0032811D00968890700292DDA2168C3
:1014800021F0030101432160FFF7ACFD814641F2E9
:10149000883A0EE009688903EFE709688901ECE7FB
:1014A000FFF7A0FDA0EB0901514502D90320BDE8DB
:1014B000F0872068696800F00C00B0EB810FEFD175
:1014C000D8F80010404601F00F01B14207D907706B
:1014D000006800F00F00B04201D00120E7E7287853
:1014E000400705D52068E96820F4E05008432060F3
:1014F0002878000706D52068296920F4604040EA72
:10150000C100206000F05CF82168084AC1F30311B3
:10151000515CC840064908600020FFF78BFD0020A1
:10152000C5E70000003C024008380240FC77000894
:101530001C00002001490120C86470470000474298
:101540000F2202600C4A136803F003034360136820
:1015500003F0F0038360136803F4E053C360126880
:101560004FF4E05303EAD20202610448006800F03D
:101570000F0008607047000008380240003C02403D
:101580000448054900680968044AC1F38221515C96
:10159000C84070471C000020083802400C78000842
:1015A0000448054900680968044AC1F34231515CA6
:1015B000C84070471C000020083802400C78000822
:1015C000154810B5006810F00C02144813D01449E7
:1015D000042A0FD0082A0ED10F4C241F226823683A
:1015E00002F03F025B0207D52068C0F38810A0FB21
:1015F000010106E0084610BD2168C1F38811A1FB76
:1016000000010023FEF74EFE2168C1F30141491C91
:101610004900B0FBF1F010BD083802400024F4008E
:1016200040787D012DE9F84F050076D02878DFF865
:10163000F8B2BE4CC00749D0DBF800105846C1F3E1
:101640008101012908D00068C0F3810002280AD175
:10165000201D0068400206D52068800336D56868E2
:101660000028E2D032E06868B0F5803F10D0B0F5D5
:10167000A02F206810D020F480302060206820F453
:10168000802020606868A0B1FFF7ACFC06460CE043
:10169000206840F48030F4E740F480202060F7E7D1
:1016A000FFF7A0FC801B642873D820688003F7D55F
:1016B0000CE0FFF797FC064605E000BFFFF792FC41
:1016C000801B6428F0D820688003F7D42878DFF8DE
:1016D000608280074FF000093ED5DBF800105846C5
:1016E00011F00C0F09D00068C0F3810002280BD163
:1016F0008D48001F0068400206D42068800715D579
:10170000E868012809D111E0E868B8B10120C8F8FB
:101710000000FFF767FC064605E002E1FFF762FC08
:10172000801B0228C0D820688007F7D52068296967
:1017300020F0F80040EAC10020600DE0C8F80090F9
:10174000FFF750FC064604E0FFF74CFC801B022824
:101750001FD820688007F7D42878000722D5724E5A
:10176000744869696C3671B101210160FFF73AFC78
:10177000074604E0FFF736FCC01B022809D8306892
:101780008007F7D50EE0C0F80090FFF72BFC074666
:1017900005E083E0FFF726FCC01B02287ED83068F6
:1017A0008007F7D42878400768D5DFF87CA10027A8
:1017B0000AF1380ADAF80000C0000BD4DAF8001099
:1017C00041F08051CAF80010DAF80000012700F05B
:1017D00080500090584E3068C00510D4306840F4F6
:1017E00080703060FFF7FEFB009005E0FFF7FAFB2A
:1017F0000099401A022851D83068C005F6D54A4EE3
:10180000A868683601280FD00528306810D020F06D
:1018100001003060306820F004003060A868B8B182
:10182000FFF7E0FB00900FE0306840F00100F4E7C4
:1018300040F004003060F7E7FFF7D4FB0099411A4D
:1018400041F28830814264D830688007F4D50EE0D8
:10185000FFF7C8FB009007E0FFF7C4FB0099411AAF
:1018600041F28830814254D830688007F4D42FB1D7
:10187000DAF8001021F08051CAF80010A869C0B34E
:10188000DBF80010C1F3810102294AD00228484642
:1018900007D0C8F86000FFF7A5FB00E039E0054677
:1018A0003AE04746C8F86000FFF79CFB064604E0B4
:1018B000FFF798FB801B02282BD820688001F7D403
:1018C000D5E907010843A96A1C4A490802EB01410E
:1018D0006A6A41EA8211084395F82C1040EA0161D6
:1018E0001148001F016001203866FFF77BFB0546A9
:1018F00005E014E0FFF776FB401B022809D82068BA
:101900008001F7D50BE000BFFFF76CFB401B0228FE
:1019100002D90320BDE8F88F20688001F4D40020AC
:10192000F8E70120F6E700000838024000380240DE
:1019300000004742800E4742007000400000FFFF59
:101940000068503040F821207047000010B5006852
:101950000B4641680D480140080CD870C1F30424BF
:101960005C7001F03F049C70C1F34231197052B9B0
:1019700002F088F8D870587802F084F85870987897
:1019800002F080F89870002010BD00003FFFFF00BB
:1019900010B50B460168896A596001680969C1F38D
:1019A0000E019960006801680E480140C1F30540CE
:1019B0001870C1F306245C7001F07F049C70402411
:1019C00004EA1141D97052B902F05CF818705878E5
:1019D00002F058F85870987802F054F89870002087
:1019E00010BD00007F7F7F0070B5040002D0607FD3
:1019F00010B106E0012070BD00202077204600F0E5
:101A000049F8022060772168CA2048622168532083
:101A10004862204602F04AF8FF25042618BB2068D9
:101A200081681B4A114081602168886862681043A0
:101A3000D4E904231A43104388602168E0680861F0
:101A400020680169228941EA024101612068C16878
:101A500021F08001C16020688068800607D420469C
:101A600000F0FEF818B1206845626677C2E720688A
:101A7000016C21F4802101642068016CA26911438A
:101A800001642068456201206077002070BD00007D
:101A9000BFFF8FFF00680349884202D1024901203D
:101AA00008607047002800403C0E47422DE9F0478F
:101AB0000446007F0B4601281FD04FF0010984F82F
:101AC0001C9002206077DAB19878D97840EA014515
:101AD00058781978000240EA413005432168CA204D
:101AE0004862216853204862204601F0DFFF00264B
:101AF000FF274FF0040860BB1AE00220BDE8F08722
:101B00005878C10603D500F0EF000A305870D87835
:101B100001F0C1FF0204587801F0BDFF42EA002243
:101B2000987801F0B8FF0243187842EA4035D5E7CB
:101B30000F480540206845602068C16821F0800199
:101B4000C1602068806880060AD4204600F088F8CA
:101B500030B12068476284F81D8026770120CDE7E8
:101B60002068476284F81D9026770020C6E70000B1
:101B70003FFFFF002DE9F0470446007F0D46012896
:101B800027D04FF0010A84F81CA00220607720685B
:101B9000002680684FEA4060F2B1002800DBEE705A
:101BA000A878297840EA01476878E978000240EA95
:101BB000014007432168CA204862216853204862D7
:101BC000204601F073FF4FF0FF084FF00409A0BB5F
:101BD00016E00220BDE8F087002800DBEE702878D0
:101BE00001F059FF0204687801F055FF42EA002233
:101BF000A87801F050FF0243E87842EA0047D9E7AD
:101C000016480740206807602068816821F4802119
:101C10008160D5E90301084321688A681043886020
:101C20002068C16821F08001C1602068806880065A
:101C30000BD4204600F014F838B12168C1F8248094
:101C400084F81D9026770120C4E72168C1F824801C
:101C500084F81DA026770020BCE700007F7F7F006E
:101C600070B504460068C16821F0A001C160FFF7AB
:101C7000B9F905464FF47A7607E000BFFFF7B2F9ED
:101C8000401BB04201D9032070BD2068C0688006A7
:101C9000F4D5002070BD70B5040005D00025A56204
:101CA00094F8510010B106E0012070BD84F8505046
:101CB000204600F031F8022084F8510020680168C5
:101CC00021F040010160D4E901010843D4E9031285
:101CD0001143084361690843218B01F400710843F3
:101CE000E1690843216A0843A16A08432168086042
:101CF000A069042101EA1040616A08432168486034
:101D00002068C16921F40061C1616565012084F822
:101D10005100002070BD000070B586B0044614214B
:101D20006846FEF709FB234E226800212248022361
:101D300003240525B2421AD11F4A1432166846F40C
:101D400080561660126802F480520592026842F0D2
:101D500001020260006802AA00F00100059082E81A
:101D60003200E020CDE90003694614481DE0144E1E
:101D7000B2421CD1104A1032166846F480461660F2
:101D8000126802F480420592026842F00202026088
:101D9000006802AA00F00200059082E832004FF4C9
:101DA0006040CDE9000369460648FFF72FF806B00A
:101DB00070BD000000300140303802400000024099
:101DC00000380040000402402DE9F84F0446406806
:101DD0000025984616460F464FF0040BB0F5827F5B
:101DE00001D1A06888B194F85000012818D00120D2
:101DF00084F85000FFF7F6F8814694F851004FF050
:101E0000000A01280ED002257DE084F851B0134667
:101E10000A462046CDF8008000F02CF9BDE8F88F86
:101E20000220FBE7002F6DD0002E6BD084F851B05C
:101E3000C4F854A0A763A687E687C4F830A0A4F826
:101E400034A0A4F836A0C4F840A0C4F844A0A06808
:101E5000B0F5004F04D12068016821F48041016091
:101E600020680168490603D4016841F0400101601F
:101E7000E068D8B139E020688168C90709D0007BE3
:101E8000A16B0870A06B401CA063E08F401EE08730
:101E90000CE0FFF7A7F8A0EB0901414503D3B8F127
:101EA000FF3F03D036E0B8F1000F33D0E08F0028B9
:101EB000E1D11DE020688168C90709D0C068A16B25
:101EC0000880A06B801CA063E08F401EE0870CE0C0
:101ED000FFF788F8A0EB0901414503D3B8F1FF3FB4
:101EE00003D017E0B8F1000F14D0E08F0028E1D143
:101EF0004A464146204601F013FE08B120206065A5
:101F0000606D00B10125012084F8510084F850A0D3
:101F1000284683E70325F6E72DE9F84F044690F8B5
:101F2000500000271D461646894601280DD04FF067
:101F3000010B84F850B0FFF755F8804694F8510033
:101F4000BA46012804D002278EE00220BDE8F88FAF
:101F5000B9F1000F7DD0002E7BD0032084F8510012
:101F6000C4F854A0C4F83090A686E686C4F838A019
:101F7000A4F83CA0A4F83EA0C4F844A0C4F840A033
:101F8000A068B0F5004F04D12068016841F4804199
:101F9000016020680168490603D4016841F04001EE
:101FA0000160E068B0F5006F606803D030B3012EC7
:101FB00024D040E008B1012E1CD1206B216800889C
:101FC000C86006E020688168890709D5216B098807
:101FD000C160206B801C2063E08E401EE08609E01B
:101FE000FFF700F8A0EB0800A84202D3681C01D05C
:101FF00031E07DB3E08E0028E4D11FE0206B216842
:102000000078087306E020688168890709D5216B8C
:1020100009780173206B401C2063E08E401EE0862F
:1020200009E0FEF7DFFFA0EB0800A84202D3681C1E
:1020300001D010E075B1E08E0028E4D14246294677
:10204000204601F08EFD08B120206065A06820B117
:1020500007E008E0FFE7032706E02068C168806822
:102060000090606D00B1012784F851B084F850A051
:1020700038466BE72DE9F84F044690F850000027EA
:102080000A9E1D4692468B464FF0010901280ED04C
:10209000012084F85000FEF7A5FF804694F8510017
:1020A000616801280CD0B1F5827F07D102E00220DF
:1020B000BDE8F88FA16809B9042801D00227C2E061
:1020C000BBF1000F27D0BAF1000F24D01DB394F854
:1020D0005100042802D0052084F8510000206065DA
:1020E000C4F838A0E587A587C4F830B0E586A58692
:1020F0002064606420680168490603D4016841F0E7
:1021000040010160E068B0F5006F606805D0E8B399
:10211000012D46D07FE0012795E008B1012D39D18E
:10212000206B21680088C860206B801C2063E08ED3
:10213000401EE0862EE02068816889070FD5E18E79
:1021400069B1B9F1010F0AD1216B0988C160206B17
:10215000801C2063E08E401EE0864FF0000920685E
:102160008168C9070CD0E18F51B1C068A16B0880AC
:10217000A06B801CA063E08F401EE0874FF0010938
:10218000FEF730FFA0EB0800B04200E009E001D309
:10219000701C50D1E08E0028CDD1E08F0028CAD12C
:1021A0003FE0206B216800780873206B401C20639F
:1021B000E08E401EE0862EE02068816889070FD5FA
:1021C000E18E69B1B9F1010F0AD1216B0978017370
:1021D000206B401C2063E08E401EE0864FF000091B
:1021E00020688168C9070CD0E18F51B1C068A16B2C
:1021F0000870A06B401CA063E08F401EE0874FF08A
:102200000109FEF7EFFEA0EB0800B04202D3701CFC
:1022100001D010E07EB1E08E0028CDD1E08F002803
:10222000CAD142463146204601F09BFC28B1012725
:102230002020606507E0032705E0A06818B9206842
:10224000C16880680090012084F85100002084F863
:10225000500038462CE77047704710B5040003D093
:1022600094F83D0010B107E0012010BD002084F873
:102270003C00204600F00CF8022084F83D00211DAF
:10228000206801F079FF012084F83D00002010BD96
:1022900070470168CA6842F00102CA60006881683C
:1022A00001F00701062903D0016841F00101016036
:1022B00000207047704770B50446006801694FF010
:1022C0000005C943890715D4C168C943890711D4DA
:1022D000E91E01610120207720688069800720467F
:1022E00002D0FFF7E7FF04E000F098F8204600F086
:1022F00096F8257720680169C943490717D4C16852
:10230000C943490713D46FF004010161022020770B
:102310002068806910F4407F204602D0FFF7CAFF92
:1023200004E000F07BF8204600F079F8257720687B
:102330000169C943090716D4C168C943090712D402
:102340006FF008010161042020772068C0698007D0
:10235000204602D0FFF7AEFF04E000F05FF8204611
:1023600000F05DF8257720680169C943C90617D4D4
:10237000C168C943C90613D46FF010010161082078
:1023800020772068C06910F4407F204602D0FFF714
:1023900091FF04E000F042F8204600F040F8257775
:1023A00020680169C943C90708D1C168C943C90781
:1023B00004D1891E0161204600F032F820680169CD
:1023C000C943090609D4C168C943090605D46FF099
:1023D000800101612046FFF73EFF20680169C94383
:1023E000490609D4C168C943490605D46FF04001C4
:1023F0000161204600F01EF820680169C943890682
:102400000BD4C168C943890607D46FF0200101616C
:102410002046BDE87040FFF71FBF70BD7047704792
:1024200000680349884201D1FEF7E2BD7047000011
:1024300000000140704710B504460068416994F8F7
:102440003920C1F3C011212A0BD151B1416921F0CA
:1024500080014161206B08B1FEF7F6FA204601F0D9
:1024600067FF2068416994F83A20C1F38011222A5D
:102470000BD151B1416921F040014161606B08B15C
:10248000FEF7E2FA204601F045FF002010BD70473C
:1024900070B5026804461068D168536910F00F0FD8
:1024A00050D003F0010501F4907635435DD0C207AA
:1024B00005D0CA0503D5E26B42F00102E263420790
:1024C00005D5DA0703D0E26B42F00202E26382072D
:1024D00005D5DA0703D0E26B42F00402E26302079B
:1024E00005D5DA0703D0E26B42F00802E263E26B43
:1024F000002A33D0800604D5880602D5204601F094
:1025000020FF20684069E16BC0F38010090700D408
:1025100028B3204601F0FEFE2068416949061AD51D
:10252000416921F040014161606BA0B11B49016527
:10253000606BFEF7D0FA002810D0606B016DBDE82B
:1025400070400847830610D58B060ED52046BDE89F
:10255000704001F0F6BE2046FFF799FF70BD20469F
:10256000FFF795FF0020E06370BD030606D50B065C
:1025700004D52046BDE8704002F084B84006F3D58B
:102580004806F1D5D168204621F04001D1602021D4
:1025900084F8391000F087FA70BD00007542000819
:1025A00070B5040004D094F83900002510B106E09D
:1025B000012070BD84F83850204600F023F8242014
:1025C00084F839002068C16821F40051C1602046B8
:1025D00001F002FF2068016921F490410161206847
:1025E000416921F02A0141612068C16841F400512C
:1025F000C160E563202084F8390084F83A000020A7
:1026000070BD00002DE9F04F87B0054614216846E3
:10261000FDF792FEBE48DFF8F4C22B680024BC49E7
:102620001038022701260822DFF8E8E24FF00308FD
:102630004FF0006A4FF4806963452BD10B6843F477
:1026400000230B60096801F400210591016841F045
:10265000010101600068CDE9008700F00100CDE9CB
:102660000420CDE9026869467046FEF7CFFBAB4E09
:10267000A9483060C6E901A4C6E903497461B461A0
:10268000F46134623046746238E16E63B56307B05A
:10269000BDE8F08FDFF888C263453DD10B6843F495
:1026A00080130B60096801F480110591016841F005
:1026B00004010160016801F004010591016841F025
:1026C00008010160006802AB00F0080005904FF4BB
:1026D0008050CDE90007934683E840096946914858
:1026E000FEF794FB0420CDE9000702AB694683E8BE
:1026F00040098D48FEF78AFB8748884E303860369F
:102700003060C6E901A4C6E903497461B461F461AB
:10271000346230467462F1E0DFF810C263452BD1B9
:102720000B6843F080430B60096801F0804105911C
:10273000016841F0200101600068029600F020006D
:102740000590C020CDE90007CDE9038269467848AD
:10275000FEF75CFB7048714E1830C03630604FF0A9
:102760002060C6E90104C6E903497461B461F461FB
:10277000346230467462C1E0DFF8B8C14FF0070B35
:10278000634531D16249091D0A6842F010020A60AE
:10279000096801F010010591016841F00101016033
:1027A0000068029600F0010005904FF40070CDE93A
:1027B0000007CDE9037B5C46694675467046FEF727
:1027C00025FBCDF80090CDE90384CDE9017669467B
:1027D0002846FEF71BFB002205212520FEF78EFC74
:1027E0002520FEF77DFC52E7DFF84CC1634528D178
:1027F0000A6842F400320A60096801F40031059168
:10280000016841F001010160006802AA00F00100C6
:1028100005900C20CDE9000782E840096946704622
:10282000FEF7F4FA3C48454E48303060C6E901A452
:10283000C6E903497461B461F4613462304674627C
:102840005CE0DFF8FCC063452AD10A6842F48022CC
:102850000A60096801F480210591016841F00201D4
:102860000160006802AA00F0020005904FF4406089
:10287000CDE9000782E8400969463248FEF7C6FA0A
:1028800025482E4E183860363060C6E901A4C6E9E6
:1028900003497461B461F4613462304674622DE0BE
:1028A00029498B429FD11A49091D0B6843F0200327
:1028B0000B60096801F020010591016841F00401F5
:1028C00001600068029600F004000590C020CDE988
:1028D0000007CDE9038269461248FEF797FA174EC2
:1028E0001A48C03630608005C6E90104C6E90349CC
:1028F0007461B461F461346230467462FEF7CEF9FB
:1029000000283FF4C2AEFEF798F8BEE6004C004047
:102910004038024000000240406002404404002071
:102920000050004000080240000C024000780040C7
:1029300000140240001001400044004064050020E3
:102940000048004000040240001401402864024096
:10295000F8B5044690F83A0020283CD1C1B3BAB388
:1029600094F83800012836D0012084F83800A1629C
:10297000A2850025E563222084F83A00636B17489E
:10298000D863636B16481864636B1648D864606B31
:10299000134605650846666B216802463046091DE8
:1029A000FEF7E6F9206801684168009184F8385024
:1029B000C16841F48071C1602068416941F0010142
:1029C00041612068416941F0400141610020F8BD4A
:1029D000FFE70120FBE70220F9E70000CF420008F3
:1029E0000B43000885420008704770472DE9F84303
:1029F000044690F839001F4616460D46202850D14F
:102A0000A5B19EB194F8380001284AD0012084F87D
:102A100038004FF00008C4F83C80212084F83900C9
:102A2000FEF7E0FAA6848146E68426E00120BDE8B0
:102A3000F883E08C401EE084A0684B46B0F5805FD0
:102A40004FF000024FF080012046009703D001F0C4
:102A50004AFEE8B90DE001F046FEC8B928882168B1
:102A6000C0F308004860206908B16D1C05E0AD1C8A
:102A700003E0216815F8010B4860E08C0028D8D1EC
:102A80004B46002240212046009701F02CFE08B161
:102A90000320CCE7202084F8390084F83880002017
:102AA000C5E70220C3E77047FEE710B5412801D013
:102AB000FF2010BD08210846FDF716FF3D2111201B
:102AC00001F094FE8621172001F090FE7F21262040
:102AD00001F08CFE1E212D2001F088FE00212C200B
:102AE00001F084FE8D212A2001F080FE3E212B2062
:102AF00001F07CFE0120FEF777F900F08FFE002048
:102B000010BD70B50024234608E0CD181B1DEE78DB
:102B10002D6866F31F6540F82450641C9342F4D37B
:102B200070BD70B500231C4611E011F82350055507
:102B300031F823502E0A05196E7051F82360360CB7
:102B4000AE7051F823605B1C360EEE70241D94426B
:102B5000EBD370BD7CB5044600880E46C0F3C500BB
:102B6000382802D2C0F1380501E0C0F1780508220A
:102B700021466846FFF7D5FF2A460849204600F05F
:102B80007FFB08226946204600F07AFB102204F100
:102B900008013046FFF7C5FF7CBD0000980000200B
:102BA000002101604160054981600549C160034918
:102BB000C94301610249C943416170470123456727
:102BC00089ABCDEF2DE9F0410446C0B054F8048B39
:102BD000402294E8E0006846241FFFF792FF05EAD0
:102BE000060027EA05010843FE49009A014402EB6A
:102BF0000800084405EB706000EA050126EA0002BF
:102C00001143F94A1144019A3A44114400EB3153FB
:102C100003EA000125EA03021143F44A1144029A2F
:102C20003244114403EBF13101EA030220EA0106C8
:102C30003243EF4E3244039E35442A4401EBB22224
:102C400002EA010523EA02063543EA4E3544049EB2
:102C50003044284402EB706000EA020521EA0006D5
:102C60003543E54E3544059E33442B4400EB335346
:102C700003EA000522EA03063543E04E3544069E8A
:102C80003144294403EBF13101EA030520EA01064E
:102C90003543DB4E3544079E32442A4401EBB222D1
:102CA00002EA010523EA02063543D64E3544089E62
:102CB0003044284402EB706505EA020021EA05066B
:102CC0003043D14E3044099E3344184405EB305014
:102CD00000EA050322EA000633430A9EA3F52443D3
:102CE00031444F3B194400EBF13303EA000125EA7C
:102CF00003063143C54E31440B9E3244114403EB6D
:102D0000B12101EA030220EA01063243C04E3244F7
:102D10000C9E35442A4401EB726202EA010523EA63
:102D200002063543BB4E35440D9E3044284402EB29
:102D3000305505EA020021EA05063043B64E30441C
:102D40000E9E3344184405EBF03000EA050322EAF6
:102D500000063343B14E33440F9E3144194400EB17
:102D6000B12101EA050320EA05063343AC4E3344A2
:102D7000019E32441A4401EBF26202EA000321EAA6
:102D800000063343A74E3344069E35442B4402EBE2
:102D9000F35303EA010522EA01063543A24E354406
:102DA0000B9E3044284403EBB04000EA020523EABE
:102DB000020635439D4E3544009E3144294400EBC4
:102DC000313101EA030520EA03063543984E3544C4
:102DD000059E32442A4401EBF26202EA000521EA30
:102DE00000063543934E35440A9E33442B4402EB90
:102DF000F35303EA010522EA010635438E4E3544BA
:102E00000F9E3044284403EBB04000EA020523EA59
:102E100002063543894E3544049E3144294400EB73
:102E2000313101EA030520EA03063543844E354477
:102E3000099E32442A4401EBF26202EA000521EACB
:102E4000000635437F4E35440E9E33442B4402EB3F
:102E5000F35303EA010522EA010635437A4E35446D
:102E6000039E3044284403EBB04000EA020523EA05
:102E700002063543754E3544089E3144294400EB23
:102E8000313101EA030520EA03063543704E35442B
:102E90000D9E32442A4401EBF26202EA000521EA67
:102EA000000635436B4E3544029E33442B4402EBFF
:102EB000F35303EA010522EA01063543664E354421
:102EC000079E3044284403EBB04000EA020523EAA1
:102ED00002063543614E35440C9E31442944059D1C
:102EE00000EB3131154481EA00025D4E5A40324414
:102EF0002A44089D01EB32721D4482EA01034340DB
:102F0000584E33442B440B9D02EB7353054483EA24
:102F10000200554E48403044284403EB30450E989B
:102F2000524E014485EA030050403044084405EB0A
:102F300070260198811886EA05004D4A58401044D1
:102F4000084406EB30720498C11882EA0600494B27
:102F5000684018440844079902EB70504B1980EA06
:102F60000201454D7140294419440A9B00EB31414F
:102F70009D1981EA0003414E534033442B440D9D7B
:102F800001EB7323154483EA01023D4E4240324473
:102F90002A44009D03EB3272054482EA0300394E55
:102FA00048403044284402EB70550398364E0144A3
:102FB00085EA020058403044084405EB3041069849
:102FC000324E034481EA0500504030441844099BC6
:102FD00001EB7020134480EA01022D4E6A40324416
:102FE0001A4457E078A46AD756B7C7E8DB702024A4
:102FF000EECEBDC1AF0F7CF52AC68747134630A879
:10300000019546FDD8988069AFF7448BBED75C899F
:103010002211906B937198FD8E4379A62108B449D3
:1030200062251EF640B340C0515A5E26AAC7B6E9D3
:103030005D102FD65314440281E6A1D8C8FBD3E714
:10304000E6CDE121D60737C3870DD5F4ED145A45F7
:1030500005E9E3A9F8A3EFFCD9026F678A4C2A8D32
:103060004239FAFF81F6718722619D6D0C38E5FDCA
:1030700044EABEA4A9CFDE4B604BBBF670BCBFBE1A
:10308000C67E9B28FA27A1EA8530EFD4051D880467
:1030900039D0D4D90C9B00EB32721D4482EA000374
:1030A000644E4B4033442B440F9D02EB73530D444D
:1030B00083EA0201604E414031442944029D03EB02
:1030C0003141054481EA03005C4E504030442844BD
:1030D00001EB702500985A4E024465EA030048400F
:1030E00030441044079A05EBB060134460EA0102D3
:1030F000544E6A4032441A440E9B00EBB2520B44C9
:1031000062EA0501504E414031441944059B02EBEF
:1031100071411D4461EA00034C4E534033442B443B
:1031200001EBF3250C9B4A4E034465EA020048403C
:103130003044184405EBB0660398464B024466EAF7
:10314000010068401844104406EBB0530A9801444B
:1031500063EA0500404A704010440844019903EBBB
:1031600070404A1960EA06013C4D59402944114417
:10317000089A00EBF121951961EA0302384E4240AA
:1031800032442A440F9D01EBB2621D4462EA0003FF
:10319000344E4B4033442B44069D02EBB35305445D
:1031A00063EA0100304E50403044284403EB704540
:1031B0000D982E4E014465EA020058403044084400
:1031C000049905EBF0200A4460EA0301284E6940A7
:1031D000314411440B9A00EBB161134461EA0502DA
:1031E000244E424032441A4401EBB253029A224E1A
:1031F000154463EA00024A4032442A44099D03EB25
:103200007242054462EA01001C4E58403044284492
:10321000256802EBF0202944216061680844606061
:10322000A0681044A060E0681844E06040B0BDE8C9
:10323000F0810000E599DBE6F87CA21F6556ACC47E
:10324000442229F497FF2A43A72394AB39A093FC87
:10325000C3595B6592CC0C8F7DF4EFFFD15D848503
:103260004F7EA86FE0E62CFE144301A3A111084E87
:10327000827E53F735F23ABDBBD2D72A91D386EB83
:103280002DE9F047054616462A680F46C2F3C501E8
:1032900002EBC60200202A60B2EBC60F6A68C1F1D9
:1032A000400401D2521C6A6002EB56726A60A64268
:1032B00018D36818224639461830FDF724F805F16E
:1032C000080005F118018146FFF77CFC204604E068
:1032D00039184846FFF776FC404600F14008B045F3
:1032E000F6D90021321A3B186818BDE8F047194694
:1032F0001830FDF708B8000070B51446FCB002465F
:103300000D4666A8FFF74CFCCDE900432B4611A102
:1033100002A801F095FA02A8FDF72BF8024602A9CF
:1033200066A8FFF7ADFF34A966A8FFF713FC02A952
:103330000BA001F075FA0F4E002434AD06EB4400EB
:103340002A5D0DA101F07CFA641C102CF6DB7CB028
:10335000084870BD25732573257325730000000090
:10336000BCD3C3DCC7B03A25730ABCD3C3DCBAF301
:103370003A00000076DE00202530327800000000A0
:10338000114808B5016841F400110160016801F4B9
:1033900000110091016841F4800101600068002281
:1033A00000F48000009005210B20FDF7A7FE0B2004
:1033B000FDF796FE002205210E20FDF79FFEBDE8D9
:1033C00008400E20FDF78CBE3038024010B59CB08E
:1033D00002F066FA242212496846FCF794FF6A4616
:1033E0000021104802F098FA0F4C0D492422606029
:1033F000243109A8FCF787FF09AA00210B4802F035
:103400008BFA0749A0602422483112A8FCF77BFF01
:1034100012AA0021064802F07FFAE0601CB010BD3D
:10342000887700087151000800000020DD6700085F
:10343000F56400082DE9F04186B014216846FCF7D8
:103440007BFF32480024016841F0040101600168FB
:1034500001F004010591016841F02001016001685B
:1034600001F020010591016841F0800101600168CF
:1034700001F080010591016841F0010101600168DE
:1034800001F001010591016841F00201016001684C
:1034900001F002010591016841F008010160006836
:1034A0001B4E00F0080042F210050590002229464C
:1034B0003046FDF791FD174F002204213846FDF7F5
:1034C0008BFDDFF85480002210214046FDF784FD7B
:1034D00000950125CDE90154694630460394FDF776
:1034E00095FC04200090CDE90154694638460394C8
:1034F000FDF78CFC10200090CDE901546946404650
:103500000394FDF783FC06B0BDE8F081303802403B
:1035100000080240001C02400000024010B50022DA
:1035200005210C20FDF7EAFD0C20FDF7D9FD002256
:1035300005210D20FDF7E2FD0D20FDF7D1FD002254
:1035400005211020FDF7DAFD1020FDF7C9FD00224E
:1035500005212620FDF7D2FD2620FDF7C1FD002222
:1035600005212720FDF7CAFD2720FDF7B9FD002220
:1035700005213420FDF7C2FD3420FDF7B1FD002206
:1035800005213920FDF7BAFD3920FDF7A9FD0022FC
:1035900005214720FDF7B2FD4720FDF7A1FD0022E0
:1035A00005215220FDF7AAFD5220FDF799FD0022CA
:1035B00005213520FDF7A2FDBDE810403520FDF7BF
:1035C0008FBD00000B4810B50949016000217F2222
:1035D000C0E90112FF22C0E9032141618161FEF7C8
:1035E00003FA002803D0BDE81040FDF726BA10BD4D
:1035F00000280040B4010020104810B50E490160B9
:103600004FF48271416000218160C1604FF400720B
:103610000161C0E905122822C0E9072141628162E7
:103620000A21C162FEF737FB002803D0BDE8104035
:10363000FDF703BA10BD000000300140D4010020A6
:10364000104810B50E4901604FF4827141600021AD
:103650008160C1604FF400720161C0E9051220224F
:10366000C0E90721416281620A21C162FEF713FBB2
:10367000002803D0BDE81040FDF7DFB910BD000001
:10368000003800402C0200200C4810B50A490160A7
:103690004FF4E1314160002181600C22C160C0E93A
:1036A00004128161C161FEF77BFF002803D0BDE8F1
:1036B0001040FDF7C2B910BD004C0040840200204C
:1036C0000C4810B50A4901604FF4E1314160002116
:1036D00081600C22C160C0E904128161C161FEF702
:1036E0005FFF002803D0BDE81040FDF7A6B910BD6C
:1036F00000500040C40200200C4810B50A49016087
:103700004FF4E1314160002181600C22C160C0E9C9
:1037100004128161C161FEF743FF002803D0BDE8B8
:103720001040FDF78AB910BD007800400403002066
:103730000C4810B50A4901604FF4E13141600021A5
:1037400081600C22C160C0E904128161C161FEF791
:1037500027FF002803D0BDE81040FDF76EB910BD6B
:1037600000100140440300200C4810B50A490160D4
:103770004FF4E1314160002181600C22C160C0E959
:1037800004128161C161FEF70BFF002803D0BDE880
:103790001040FDF752B910BD0044004084030020E2
:1037A0000C4810B50A4901604FF4E1314160002135
:1037B00081600C22C160C0E904128161C161FEF721
:1037C000EFFE002803D0BDE81040FDF736B910BD6C
:1037D00000480040C40300200C4810B50A490160AD
:1037E0004FF416514160002181600C22C160C0E994
:1037F00004128161C161FEF7D3FE002803D0BDE849
:103800001040FDF71AB910BD001401400404002057
:10381000FEE7704703211420FDF766B810B51420A9
:1038200000F062F9800705D10321BDE810401420A3
:1038300000F028BA10BD70B5064608219CB00024DF
:103840000846FDF751F800210D2000F0CFFF802140
:103850000E20FDF749F893208DF8040020208DF804
:1038600005001AA801AB0090022219460C2000F0B6
:1038700017F805000DD1002101A8425C7254425C8A
:10388000491C5440C9B20429F7D3405CA04200D07F
:10389000FE2580210E2000F0F5F91CB0284670BDF1
:1038A0002DE9FF5F0027FE25DDF838A016468B4680
:1038B0008146B8460C2805D0B9F10E0F05D1122764
:1038C000102001E077273020804647F08001022059
:1038D00000F08CFF80210420FDF706F80021012074
:1038E00000F084FF80210A2000F0CCF9002405E0DC
:1038F0001BF80410092000F079FF641CB442F7D3D0
:103900004946012000F072FFB9F10C0F03D180216C
:103910000D2000F0B7F94FF41676042000F0E4F81B
:103920000446761E04D0E00702D114EA080FF4D052
:1039300080210D20FCF7D8FF36B1062000F0D4F826
:1039400010F01B0F0CD0FE2580210C2000F09AF9FE
:103950000021012000F04AFF04B02846BDE8F09F96
:1039600000253C40E00700D0FF25B9F10C0FEBD15A
:103970000A2000F0B9F804460C2000F0B5F810F069
:1039800007004FEAC40101D008390144CAF8001009
:1039900024B1642C04D96424002603E00124FBE74D
:1039A000002605E0092000F09FF803998855761C51
:1039B000A642F7D3C8E730B50C46054608219BB0B0
:1039C0000846FCF791FF07210D2000F00FFF0321AF
:1039D000142000F057F91AA801AB00908DF804509C
:1039E000012219460C20FFF75BFF10B91A99102924
:1039F00002D0FE201BB030BD9DF8041021709DF850
:103A000005106170F6E7000010B51D4C0122102171
:103A10002046FDF7E1FA0A20FDF7E6F90022102121
:103A20002046FDF7D9FA0A20FDF7DEF90122102120
:103A30002046FDF7D1FA0A20FDF7D6F9022000F062
:103A400053F80F21012000F0D1FE3D21112000F09C
:103A5000CDFE1E212D2000F0C9FE00212C2000F0FB
:103A6000C5FE8D212A2000F0C1FE3E212B2000F052
:103A7000BDFE4021152000F0B9FE002010BD000061
:103A800000080240010901EB810100F00F0000EB8A
:103A90004100C0B27047002102E00A38C0B2491CA0
:103AA0000A28FAD2090740EA1160704770B5044647
:103AB0000068C168490614D44FF0FF31C160FDF7BA
:103AC00091FA05464FF47A7607E000BFFDF78AFACF
:103AD000401BB04201D9032070BD2068C068400679
:103AE000F4D5002070BD000070B50C4D04460022D6
:103AF00010212846FDF770FA7E2000EA440040F0CD
:103B0000800000F0A7F800F03DF8044601221021E3
:103B10002846FDF761FA204670BD00000000024013
:103B200038B504464068B0F5827F0BD1A068B0F587
:103B3000004F02D0B0F5806F04D12068036823F0F5
:103B4000400303600B46009200228021204600F0D3
:103B500037F8002804D0606D40F020006065032035
:103B600038BD38B50B46009204460022802100F093
:103B700027F8002804D0606D40F020006065032025
:103B800038BD000008B54FF6FF73012269460548AD
:103B9000FEF71AF918B104A000F042FE08BD9DF826
:103BA000000008BDD40100207370692073656E6445
:103BB0002072656164206661696C0D0A0000000076
:103BC0002DE9F0411D4617460E460446DDF81880E3
:103BD00008E0681C06D0FDF705FAA0EB0800A84233
:103BE0000BD255B12068806836EA000030D0002042
:103BF000B842EED10020BDE8F0812068416821F094
:103C0000E00141606068B0F5827F0BD1A068B0F53B
:103C1000004F02D0B0F5806F04D12068016821F018
:103C200040010160A06AB0F5005F09D12068016819
:103C300021F4005101602068016841F400510160E5
:103C4000012084F85100002084F850000320D2E7BE
:103C50000120CDE701B54FF6FF7301226946044804
:103C6000FEF75AF9002802D002A000F0D9FD08BDE5
:103C7000D40100207370692073656E6420666169E9
:103C80006C0D0A0070B50C460546FFF72DFF40EAA3
:103C900004012846BDE8704000F0A8BD10B55020D2
:103CA00080F31188BFF34F8FBFF36F8F03F0CAFB10
:103CB00018B104494FF080500860002080F311884B
:103CC00010BD000004ED00E070B59EB030216846E4
:103CD000FCF732FB142118A8FCF72EFB30210CA8AE
:103CE000FCF72AFB20480025016841F08051016063
:103CF000006800F080501D901C48016841F440416C
:103D000001600068022400F440401D9005200090EE
:103D10004FF480300190012002908005CDE90640EB
:103D20000F260896D820CDE9090404200B90684698
:103D3000FDF778FCFDF714FA4FF4A050CDE91A50C6
:103D4000E002CDE918641C90052118A8FDF75AFB84
:103D500020200C90C00016900CA8FDF739FAFDF752
:103D6000E9FB1EB070BD000040380240007000400A
:103D70001048016841F4700101600F48016841F08A
:103D8000010101600C4A00210832116002680B4BEE
:103D90001A400260031D0A4A1A60026822F4802257
:103DA000026005480C3001600249580680390860FD
:103DB0007047000088ED00E000380240FFFFF6FE8B
:103DC000103000242DE9F04F704C714F87B02078EF
:103DD000012678B9384602F01BFB01280ED0384680
:103DE00002F0B0FD012809D001F0F4F96421384651
:103DF000FCF7A2FA607801280CD00FE0394665A0E4
:103E000000F00EFD26706670A670E67067A000F0E8
:103E100007FDEFE702F05AFD03206070DFF87091B4
:103E2000A178A9F16C09DFF894B109F5CD784FF0CC
:103E3000020A012914D16078032811D16049009742
:103E4000CDE9018109F506720BF106010CCA58464D
:103E500001F06AFB20B15BA000F0E2FC84F802A054
:103E6000E078012810D102F087FD40B15BA000F09E
:103E7000D7FC84F803A05C4801F0E8F904E001F005
:103E8000CBF9322001F0F2FCA0780025032802D003
:103E900004283FD002E0E078022806D020790128EB
:103EA00008D0607901280CD043E050A000F0B8FCA5
:103EB000A570267152A000F0B3FC257101F0D5FC6D
:103EC000667153A000F0ACFC02F056FD60B353A045
:103ED00000F0A6FC4448801C01F0B8F9B9F80C12B7
:103EE00052A000F09DFCB9F80A1257A000F098FC0F
:103EF000B9F80C12B9F80A02081A1E2819DDFCF7E5
:103F000048FA09F50A7203C256A000F089FC6571EF
:103F1000A67111E02570A570E57065712571657059
:103F2000A57107B0BDE8F08F01F076F9322001F0FD
:103F30009DFCA079012820D14EA000F071FC02F078
:103F4000C5FC4846284BD0E9941226330493CDE9AA
:103F500005121B4ACDE90226CDE9007899ED8A0BBE
:103F60000BF106011548D9F81C32D9F8182201F0D6
:103F700061FB10B184F806A0D3E7A0790328D0D163
:103F800040A000F04DFCA5712570CAE7A6010020F5
:103F900094F4002042696E5F53797374656D2E61ED
:103FA00063636F756E743D25730D0A00BBF1B5C375
:103FB000D3C3BBA7CAFDBEDD0D0A000058AE00206A
:103FC000F932000873656E642075736572206A6942
:103FD000616F6E69616E200D0A000000BBF1B5C310
:103FE000D6D8C1BF200D0A0032F600207573657265
:103FF000206973207375636573730D0A00000000F8
:10400000646F6F72206973206F70656E000000002E
:104010003330C3EBBDF8C8EB0D0A0000BBF1B5C3EC
:104020007A686F6E676C7368756A750042696E5F57
:1040300053797374656D2E7765696768745F656E13
:10404000643D25640000000042696E5F537973741B
:10405000656D2E7765696768745F6C6173743D2563
:1040600064000000D2D1BEADB6AAC0ACBBF80D0A48
:1040700000000000CDC6CBCDC0ACBBF8D0C5CFA2F0
:104080000D0A00006C69756368656E6777616E6321
:1040900068656E670D0A00007FB51C4D18A0204CA6
:1040A000C5F818021AA0C5F81C0294F8D70494F8B1
:1040B000DA3494F8D92494F8D8148DE80F0005F573
:1040C0000C7094F8D634B4F8D42416A1064604F241
:1040D000D44405F5067500F0B3FB314619A000F095
:1040E0009FFBA1796079CDE900012379E278A1787D
:1040F000208802F045FB1AA0A8631BA0E8637FBDDF
:1041000031303435303134393800000028F40020A3
:1041100074657374313233343536373839300000D2
:1041200010EF0020323025642D253032642D2530EB
:10413000326420253032643A253032643A253032F8
:104140006400000042696E5F53797374656D2E6878
:10415000616E646C655F74696D653D25730D0A0061
:104160007465737400000000330000000148FEF71E
:10417000A2B8000084060020F0B50268254C264D48
:10418000264E274F274B4FF0804CA04209D0604568
:1041900007D0A84205D0B04203D0B84201D098421F
:1041A00004D122F0700E4A6842EA0E02A0421BD0EF
:1041B000604519D0A84217D0B04215D0B84213D0EC
:1041C000984211D0184DA8420ED0184DA8420BD0DD
:1041D000174DA84208D0174DA84205D0164DA84249
:1041E00002D0164DA84203D122F44075CA682A4372
:1041F0004D6922F080022A4302608A68C2620A681E
:104200008262A04201D0984201D109690163012173
:104210004161F0BD00000140000400400008004082
:10422000000C0040000401400040014000440140F7
:104230000048014000180040001C004000200040E1
:1042400010B50449044800F0B2FABDE81040024835
:10425000FEF71EB904DF0020840200200148FEF7AB
:1042600017B90000C40200200148FEF711B9000090
:104270000403002010B5806B0021C185C184FEF7C6
:1042800006F910BD70B5846B2068406994F8391048
:10429000C0F3C0100025212904D118B1E5842046BF
:1042A00000F046F82068406994F83A10C0F3801096
:1042B000222904D118B1E585204600F02BF8E06BE7
:1042C00040F01000E0632046FEF7E1F870BD10B545
:1042D0000146806B09680968C90513D40021C185AE
:1042E0000168CA6822F48072CA6001684A6922F0D3
:1042F00001024A6101684A6922F040024A612021B4
:1043000080F83A10FEF770FB10BD10B5806BFEF719
:104310006CFB10BD0168CA6822F49072CA60016823
:104320004A6922F001024A61202180F83A10704760
:104330000168CA6822F0C002CA60202180F83910E2
:10434000704710B590F83A10222901D0022010BD14
:104350008168B1F5805F11D00169002901681FD023
:10436000496801F07F03816A4A1C82620B70C18D2B
:10437000491E0904090CC18518D02BE00269816A25
:10438000002A0268526805D0D2B20A80816A491CAC
:104390008162ECE7C2F308020A80816A891CF7E7B0
:1043A0004A68816A4B1C83620A70E0E70168CA6848
:1043B00022F02002CA600168CA6822F48072CA60D2
:1043C00001684A6922F001024A61202180F83A100E
:1043D000FEF70AFB002010BD2DE9F04104460068FD
:1043E0000169E26821F44051114301612169A0682B
:1043F000E26908436169114322680843D16849F2C0
:104400000C6399430143D16020684169A26921F49A
:10441000407111434161E2696425B2F5004F97484C
:10442000974922684FF032083FD08A4201D0824239
:104430007CD1FDF7B5F800EBC00101EB001061681D
:104440008900B0FBF1F6FDF7ABF800EBC00101EB22
:10445000001061688900B0FBF1F0B0FBF5F06FF07F
:104460001801484306EB800108EB0110B0FBF5F0A2
:1044700000F0F006FDF794F800EBC00101EB00102E
:1044800061688900B0FBF1F0B0FBF5F006EB0016B7
:10449000FDF786F800EBC00101EB001061688900B0
:1044A000B0FBF1F7FDF77CF8D2E08A4201D08242FE
:1044B0003DD1FDF775F800EBC00101EB001061681C
:1044C0004900B0FBF1F0B0FBF5F00601FDF768F82C
:1044D00000EBC00101EB001061684900B0FBF1F78F
:1044E000FDF75EF800EBC00101EB001061684900C8
:1044F000B0FBF1F0B0FBF5F06FF01801484307EBAB
:10450000800108EBC100B0FBF5F000F0F80006EB0D
:104510004006FDF745F800EBC00101EB00106168B3
:104520004900B0FBF1F7FDF73BF83CE055E0FDF743
:1045300027F800EBC00101EB001061684900B0FBF7
:10454000F1F0B0FBF5F00601FDF71AF800EBC00141
:1045500001EB001061684900B0FBF1F7FDF710F8BE
:1045600000EBC00101EB001061684900B0FBF1F005
:10457000B0FBF5F06FF01801484307EB800108EB42
:10458000C100B0FBF5F000F0F80006EB4006FCF7C8
:10459000F7FF00EBC00101EB001061684900B0FBC0
:1045A000F1F7FCF7EDFF00EBC00101EB00106168D3
:1045B0004900B0FBF1F0B0FBF5F06FF01801484393
:1045C00007EB800108EBC100B0FBF5F000F007003D
:1045D000216830448860BDE8F081FCF7D1FF00EB32
:1045E000C00101EB001061688900B0FBF1F6FCF737
:1045F000C7FF00EBC00101EB001061688900B0FB50
:10460000F1F0B0FBF5F06FF01801484306EB8001C4
:1046100008EB0110B0FBF5F000F0F006FCF7B0FF7E
:1046200000EBC00101EB001061688900B0FBF1F004
:10463000B0FBF5F006EB0016FCF7A2FF00EBC001A3
:1046400001EB001061688900B0FBF1F7FCF798FFFF
:1046500000EBC00101EB001061688900B0FBF1F0D4
:10466000B0FBF5F06FF01801484307EB800108EB51
:104670000110B0FBF5F000F00F00A9E700140140B5
:104680000010014090F83910212901D00220704714
:104690008168B1F5805F016A0BD04A1C0262026832
:1046A00009785160C18C491E0904090CC1840ED0DF
:1046B00017E009880268C1F3080151600169002907
:1046C000016A02D0491C0162ECE7891CFBE7016822
:1046D000CA6822F08002CA600068C16841F04001E7
:1046E000C160002070472DE9F041984617460E46FC
:1046F0000446069D1DE0681C1BD02DB1FCF772FC22
:10470000A0EB0800A84214D92068C16821F4D07138
:10471000C1602068416921F001014161202084F8D5
:10472000390084F83A00002084F838000320BDE8FE
:10473000F0812068006836EA000004D00020B8420A
:10474000D9D00020F3E70120F9E700000148FDF788
:104750009FBE00004403002010B50449044800F047
:1047600026F8BDE810400248FDF792BE62BE002068
:104770008403002010B50449044800F018F8BDE88F
:1047800010400248FDF784BE58AE0020C40300204C
:1047900010B50449044800F00AF8BDE8104002488A
:1047A000FDF776BE6CCE002004040020FEE738B58D
:1047B000054600680C460168C943C90615D401685E
:1047C000406800902846FDF736FE686B0068406838
:1047D0004FF4FA62C0F5FA60608001202070A11DDC
:1047E0002846BDE83840FEF7B3B838BD70B50B4D6C
:1047F0000E460446002210212846FCF7EDFB7E20E1
:1048000000EA4400FFF726FA3046FFF723FA28466D
:10481000BDE8704001221021FCF7DEBB0000024021
:104820000FB4054B10B503A9044A029800F0FEF836
:1048300010BC5DF814FB00007D510008B0010020A1
:104840000FB4084B10B504A902AA039800F0EEF8C3
:10485000044602A9002000F080FC204610BC5DF850
:1048600014FB00005B5100080907090E002804DB57
:1048700000F1E02080F80014704700F00F0000F114
:10488000E02080F8141D704702E008C8121F08C11C
:10489000002AFAD170477047002001E001C1121FC1
:1048A000002AFBD1704700002DE9FF5F82B0002194
:1048B000DDE90430020DDDF840B0034318D044F6C2
:1048C0001050A2F2FF3242431514119801281FD054
:1048D000A5EB0B00401C5FEA000A4FF000064E4FAC
:1048E000DFF83891B046504615D5CAF1000413E000
:1048F000119801244AA3012801D16FEA0B01029803
:10490000119AC0E90031C0E9024206B0BDE8F09F4B
:10491000CBF10000DFE704460021404A491842EB92
:104920000450CDE9001012E0E00707D032463B46C4
:1049300040464946FBF777FE8046894632463B466D
:1049400010461946FBF76FFE06460F466410002C12
:10495000EAD1DDE90401DDE90023BAF1000F06DA4E
:10496000FBF761FE42464B46FBF75DFE05E0FBF7B9
:10497000CCFE42464B46FBF7C8FE04460E460022DC
:10498000284BFBF749FF03D84FF0FF30014607E003
:104990000022254B20463146FBF79EFDFBF724FF06
:1049A000102409E0002C0ADB0A220023FBF77AFC22
:1049B000039B30321A55641E50EA0102F2D1641C86
:1049C000039AC4F111031444119A012A03D001225D
:1049D00008430DD10AE0084304D000204FF0110B2A
:1049E000119072E7A3EB0B056D1E0DE05B4504DD36
:1049F0004FF0000205F1010504E003DA4FF0000278
:104A0000A5F10105002AECD002981199C0E9023104
:104A1000C0E9004579E70000000014400000F03FC5
:104A2000300000000000F0430000E03F2DE9FF4FA0
:104A300095B09B468946064600250FE2252877D18A
:104A400000242746F84A0121059400E0044316F8A3
:104A5000013F203B01FA03F01042F7D130782A28B9
:104A600011D06FF02F033078A0F13002092A16D848
:104A7000059A44F0020402EB820203EB4202104466
:104A8000761C0590EFE759F8042B0592002A03DA0B
:104A9000504244F40054059044F00204761C3078EF
:104AA0002E2816D116F8010F44F004042A280DD040
:104AB0006FF02F023078A0F13003092B09D807EBF3
:104AC000870302EB4303C718761CF3E759F8047B0E
:104AD000761C30786C280FD006DC4C2817D068285C
:104AE0000DD06A2814D104E0742810D07A280FD190
:104AF0000DE044F400140AE044F4801401E044F4AE
:104B000040147278824202D104F58014761C761C1F
:104B1000307866280BD013DC582877D009DC0028C1
:104B200075D04528F6D04628F4D047281AD19DE103
:104B300018E0632835D0642879D0652812D195E132
:104B4000702873D008DC6728F1D069286FD06E28F0
:104B50000DD06F2806D1B5E073282CD0752875D0FC
:104B6000782874D05A46179990476D1C75E1C4F3A4
:104B70000250022809D003280DD0D9F800100428CB
:104B80000DD00D6009F1040967E1D9F80010EA17AA
:104B9000C1E90052F6E7D9F800100D80F2E70D7078
:104BA000F0E719F8041B8DF8001000208DF80100C3
:104BB000EA46012003E059F804AB4FF0FF306107EB
:104BC0004FF0000102D40DE008F101018846B9421E
:104BD0000FDA8045F8DB1AF808100029F4D108E054
:104BE00008F1010188468142FADB1AF80810002911
:104BF000F6D105985B46A0EB080721463846179A80
:104C000000F094FA284400EB080507E04DE029E1A4
:104C10000DE01AF8010B5A4617999047B8F10108B0
:104C2000F7D25B4621463846179A13E142E00A2242
:104C30000092C4F302524FF0000A022A08D059F839
:104C400004CB032A4FEAEC710AD00DE029E02AE0F8
:104C500009F1070121F00702F2E802C1914609E0DB
:104C60000FFA8CFC4FEAEC71042A03D14FFA8CFC4A
:104C70004FEAEC71002907DA0A460021DCF1000C4A
:104C800061EB02012D2202E0220504D52B228DF8D2
:104C90000420012203E0E20701D02022F7E790463A
:104CA00059E00A2102E010220DE010214FF0000A25
:104CB00000910BE010224FF0000A44F00404082792
:104CC000009203E008224FF0000A0092C4F302525F
:104CD000022A05D059F804CB0021032A08D009E0A4
:104CE00009F1070121F00702F2E802C1914605E04F
:104CF0001FFA8CFC042A01D10CF0FF0C4FF00008C5
:104D0000220728D5702806D0009B83F0100353EAB1
:104D10000A0305D00EE040228DF80420012208E0AD
:104D20005CEA010206D030228DF804208DF80500DF
:104D300002229046009B83F0080353EA0A030AD13B
:104D40005CEA010201D1620705D530228DF804200A
:104D50004FF001087F1E582804D034A003900EA8FD
:104D600002900DE036A0F9E753466046009AFBF743
:104D700099FA84460398825C0298401E0290027061
:104D80005CEA0100F0D1029806A9081A00F1200A95
:104D9000600702D524F4803400E00127574502DD86
:104DA000A7EB0A0000E0002000EB0A010090059844
:104DB0004144401A0590E00306D45B462146179A09
:104DC000059800F0B3F90544002706E001A85A460B
:104DD000C05D179990476D1C7F1C4745F6DBE003CB
:104DE0000CD55B462146179A059800F09FF90544BB
:104DF00004E030205A46179990476D1C0099481ED0
:104E000000900029F5DC08E0029802995A460078E3
:104E1000491C0291179990476D1CBAF10001AAF143
:104E2000010AF1DC65E1000009280100303132336C
:104E300034353637383961626364656600000000D6
:104E400030313233343536373839414243444546C0
:104E50000000000000F058F90544761C3078002866
:104E60007FF4ECAD19B02846BDE8F08F620700D49E
:104E7000062709F1070222F0070CFCE80223E146AD
:104E800003F000485FEA080C02D00FF2702C0DE02E
:104E90005FEA045C02D50FF2682C07E05FEAC47C8D
:104EA00002D00FF2602C01E0AFF2700C4FF0FF382F
:104EB00023F00043CDF850C065280CD006DC45280F
:104EC00009D046281DD047283DD13DE0662818D09E
:104ED00067287ED138E00021112F01DB112000E08E
:104EE000781CCDE9000106A90EA8FFF7DDFCDDE97D
:104EF0000F010E9A03910021009207F1010A04911B
:104F00004DE04FF000400097CDE9011006A90EA832
:104F1000FFF7CAFCDDE90F0203920E9B11990022F4
:104F2000DDF80CA00093049211B9791C00EB010A82
:104F3000B7EB0A0004D4C0F1FF3007F1010A049076
:104F4000AAEB0700019044E0012F00DA01270021BD
:104F5000112F01DD112000E03846CDE9000106A93E
:104F60000EA8FFF7A1FCDDE90F010E9A03910021C5
:104F700004910092BA4621070CD40399514500DAF6
:104F80008A46BAF1010F05DD009AAAF10101515CD0
:104F9000302908D0B84202DA10F1040F06DA0121F4
:104FA000CDE9011015E0AAF10101E9E7002805DCCF
:104FB000049901440491AAEB000102E0411C51450F
:104FC00000DD8A460499401A401C01904FF00040D1
:104FD0000290200704D40198504501DBCDF80480ED
:104FE00000208DF84F0002980DF14F07B0F1004FEF
:104FF00025D02B200E9002984FF0020800280CDAE2
:10500000404202902D200E9007E00A210298FBF703
:10501000D1F93031029007F8011DB8F10001A8F173
:105020000108F2DC02980028EFD1791E0E98087072
:10503000307800F0200040F0450007F8020D12A87B
:10504000C01B00F107081498007800B1012000EBA4
:105050000A01019801EBE07105984144401A401E95
:105060000590E00306D45B462146179A059800F0A8
:105070005DF805441498007818B15A46179990477E
:105080006D1CE00324D55B462146179A059800F075
:105090004DF805441CE00498002807DBDDE9030116
:1050A000884203DD0098405C179901E01799302091
:1050B0005A469047049805F10105401C0490019858
:1050C000401E019004D12E205A46179990476D1C1E
:1050D000BAF10001AAF1010ADDDC05E017F8010BC5
:1050E0005A46179990476D1CB8F10001A8F10108C4
:1050F000F4DC5B462146179A0598ABE62D000000CC
:105100002B000000200000002DE9F041044600259E
:105110001E461746880404D405E039462020B047CF
:105120006D1C641EF9D52846BDE8F0812DE9F041DB
:10513000044600251E469046C80301D5302700E0EE
:105140002027880404D505E041463846B0476D1C49
:10515000641EF9D52846BDE8F0810A68531C0B602F
:10516000107070470149881F00F02ABC5EAE002015
:1051700001F0CCF9012000F079FBF9E713B54FF00D
:10518000FF33012269460248FDF730FC00981CBD40
:105190004403002038B50C460546034600916422BE
:1051A0000AA10B4801F044FA09482B46642207A1E2
:1051B0001F30009401F03CFA05482B46642203A1FD
:1051C0002930009401F034FA38BD00004F4B000044
:1051D000660100201CB528210C48FBF7ADF8002221
:1051E0000B490C48FCF7B2FB084900221439094866
:1051F000FCF7CEFB05491439D1E90302CDE90002E1
:1052000003480EC9006801F00DFB1CBD00F400202E
:105210009A010020B40100200EB5A3208DF80000F3
:1052200000208DF80100A2208DF80200A4208DF846
:105230000300A5208DF8040005224FF6FF73694690
:105240000148FDF7D3FB0EBD0404002007498A790D
:10525000AA2A0AD1CA7BFF2A07D18A7ACB7A1204FA
:10526000097B02EB03221144018070476CCE0020C1
:10527000144805A1C0F86C1213A1C0F8CC1421A1E8
:10528000C0F8D0147047000041542B48545450507B
:105290004152413D2255524C222C22726F6F6D2E8D
:1052A00079696A696E676D656469612E636F6D2FD8
:1052B0006F70656E2F6765745F696E666F220D0A89
:1052C0000000000010EF002041542B48545450506F
:1052D0004152413D22434F4E54454E54222C2261AF
:1052E00070706C69636174696F6E2F782D77777752
:1052F0002D666F726D2D75726C656E636F6465647B
:10530000220D0A0041542B48545450414354494FF4
:105310004E3D310D0A00000006A1144814A2C0F849
:10532000CC24C0F86C1221A2C0F8D02424A0FFF72E
:1053300077BA000041542B48545450504152413DDB
:105340002255524C222C22726F6F6D2E79696A6938
:105350006E676D656469612E636F6D2F6F70656E2A
:105360002F70757368220D0A0000000010EF0020F6
:1053700041542B48545450504152413D22434F4ECA
:1053800054454E54222C226170706C6963617469BB
:105390006F6E2F782D7777772D666F726D2D757202
:1053A0006C656E636F646564220D0A0041542B487E
:1053B000545450414354494F4E3D310D0A000000B2
:1053C00067736D5F706172616D2E6765745F696E82
:1053D000666F5F6170695F706174683D257300007E
:1053E00010B5114C06A01149E06004F11000FAF765
:1053F000C7FF0FA0C4F8CC041CA0C4F8D00410BD93
:1054000041542B48545450504152413D2255524C26
:10541000222C226170692E6B3738302E636F6D3A03
:1054200038382F220D0A000010EF002050780008B5
:1054300041542B48545450504152413D22434F4E09
:1054400054454E54222C226170706C6963617469FA
:105450006F6E2F782D7777772D666F726D2D757241
:105460006C656E636F646564220D0A0041542B48BD
:10547000545450414354494F4E3D310D0A000000F1
:10548000F0B5B3B00C460646FFF7AAFF1E4D0094D8
:10549000334605221DA1E86801F0CAF8002830D083
:1054A00000943346052219A1D5F8CC0401F0C0F8C8
:1054B000002826D005F110000746FAF75AFF0246E9
:1054C00013A101A8FFF7BCF9334605220FA101A8DB
:1054D000009401F0ADF8002813D0334605220BA14B
:1054E0003846009401F0A4F800280AD0009433460E
:1054F000052206A1D5F8D00401F09AF8002800D0C2
:10550000012033B0F0BD000010EF00204F4B000031
:1055100041542B48545450444154413D25642C314E
:10552000303030300D0A00002DE9F047B4B0994614
:10553000DDE93C6517460C468246DDF8F880FFF74A
:1055400097FE2B46324649463846C446E047CDE9E9
:1055500000052F4833463A4620A10646FFF770F96A
:105560002C4D0094534605222BA1D5F86C0201F076
:105570005FF800282ED000945346052226A1D5F8C6
:10558000CC0401F055F8002824D03046FAF7F1FE9B
:10559000024622A102A8FFF753F9534605221EA195
:1055A00002A8009401F044F8002813D05346FF22CB
:1055B00019A13046009401F03BF800280AD000946D
:1055C0005346052214A1D5F8D00401F031F8002883
:1055D00000D0012034B0BDE8F08700006170705F3A
:1055E00069643D2573266163636F756E743D257331
:1055F00026656E63727970745F646174613D2573B2
:105600002674696D657374616D703D2573000000CB
:1056100080F1002010EF00204F4B000041542B4838
:10562000545450444154413D25642C313030303085
:105630000D0A00002DE9FF5F2DED020B0C469C4684
:105640002DED028BBCB052A9DDE94F6591E8000E4B
:1056500090464E9FB0EE408AF0EE608A33463A465E
:1056600061464046A847054601462AA0FFF7D8F8FC
:1056700006A93B4681E8000E8DED048B51980095FC
:10568000CDE901602548424623490646FFF7D8F890
:10569000FFF742FE224D00940522D5F86C0221A1AD
:1056A000409B00F0C5FF00282ED00094D5F8CC0414
:1056B00005221CA1409B00F0BBFF002824D03046EF
:1056C000FAF757FE024618A109A8FFF7B9F80094A7
:1056D000052214A109A8409B00F0AAFF002813D0BE
:1056E000009432220FA13046409B00F0A1FF002819
:1056F0000AD00094D5F8D00405220AA1409B00F0FE
:1057000097FF002800D001203CB0BDEC028B06B012
:10571000BDE8F09F25730000A078000880F100200C
:1057200010EF00204F4B000041542B48545450447C
:105730004154413D25642C31303030300D0A000099
:1057400038B50C4605460346009164221FA120A0EF
:1057500000F06EFF2B4664221CA11F48009400F04D
:1057600067FF1D482B46642218A18038009400F082
:105770005FFF19482B46642214A16038009400F0A2
:1057800057FF15482B46642210A14238009400F0C0
:105790004FFF11482B4664220CA13338009400F0CF
:1057A00047FF21462846FFF7F5FC0B482B466422AD
:1057B00006A12438009400F03BFF07482B466422E2
:1057C00002A11638009400F033FF38BD4F4B0000A3
:1057D00041540D0A000000005801002010B5044695
:1057E00003E000BF00F006F8641C20780028F9D11F
:1057F00010BD000001B54FF6FF7301226946024853
:10580000FDF7F4F808BD0000C4030020FBF7F8FB27
:10581000FEF75AFAFDF70EFEFDF7B2FDFDF7D2FED8
:10582000FDF7EAFEFDF730FFFDF782FFFDF79CFF75
:10583000FDF7B6FFFDF7D0FFFDF702FFFDF740FFD4
:10584000FDF75AFFFDF76AFEFBF7DEF8FBF7E4F819
:10585000FBF7EAF800F0DAFF4FF4FA60FBF7C4FA5E
:10586000FDF7B4FD00F038F8FEE7704710B5EFF330
:10587000058149B9EFF3108131B908490968022956
:1058800005D1EFF3118111B16FF0050403E000249D
:1058900008B101F0AFF9204610BD000070000020F3
:1058A000EFF3058058B9EFF3108040B90949086853
:1058B000022801D030B109E0EFF3118030B16FF070
:1058C0000500704701200860002070474FF0FF304E
:1058D000704700007000002010B5EFF3058060B93C
:1058E000EFF3108048B90B490868022802D001285C
:1058F00006D00BE0EFF3118040B16FF0050010BD52
:105900000220086001F0DEF9002010BD4FF0FF30EA
:1059100010BD000070000020F0B585B04FEA010313
:105920004FF00004EFF305810394A9BBEFF310815E
:1059300091BB22490968022902D1EFF3118159BBB9
:1059400050B34FF4007618218DF8104004AD42B3E7
:10595000176807B13D4697691FB139467F1E382F3A
:1059600002D21779FF0702D0002005B0F0BD5769B9
:1059700007B1BE08D2F808C0BCF1000F0DD0D46842
:10598000602C18D312693AB137B18DE8061032464F
:10599000294601F018FD03900DE0D7685FB9126940
:1059A0004AB903AACDE90012B2B2294601F0DEFCE1
:1059B000012800D003940398D7E70000700000206E
:1059C0002DE9F84F0E4605007ED046A13046FAF785
:1059D000BEFC002878D02B46142246A148A0009691
:1059E00000F026FE31464AA0FEF71AFF4BA13046D2
:1059F000FAF7ADFCDFF830A100244FF003080028CF
:105A00002ED046A13046FAF7A2FC07468AF801805C
:105A1000394646A0FEF704FF4A4900203A180B1801
:105A2000401C127BC0B283F89A210A28F6D30122C7
:105A3000894681F80F2244A0FEF7F2FE5FF00007CE
:105A400009EB070090F89A1148A0FEF7E9FE7F1CC9
:105A5000FFB20A2FF4D346A0FEF7E2FE2C7034709A
:105A60009AF80200574602281ED142A13046FAF7A2
:105A70006EFC60B141A13046FAF769FC98B187F835
:105A8000028041A0FEF7CCFE34702C700BE042A1E6
:105A90003046FAF75CFC30B10420B87041A0FEF744
:105AA000BFFE2C7034702C70B87902280ED131A151
:105AB0003046FAF74CFC30B187F806803EA0FEF77E
:105AC000AFFE34702C7000E00AE02C703E482C7061
:105AD0004FF4FA6100F8064BBDE8F84FFAF72CBC1A
