:020000040800F2
:10000000481A012081020008B3390008892B000832
:10001000B1390008DF080008494A00080000000064
:10002000000000000000000000000000C101000806
:10003000310A0008000000001D0200083D3E0008D3
:100040009B0200089B0200089B0200089B0200081C
:100050009B0200089B0200089B0200089B0200080C
:100060009B0200089B0200089B020008F908000898
:1000700005090008110900081D0900089B02000875
:10008000290900089B0200089B0200089B02000847
:100090009B0200089B0200089B0200089B020008CC
:1000A0009B020008FD4300089B0200089B02000819
:1000B0009B0200089B0200089B0200089B020008AC
:1000C0009B0200089B0200089B0200089B0200089C
:1000D0009B020008E9490008F5490008114A000898
:1000E0009B0200089B0200089B0200089B0200087C
:1000F0009B0200089B0200089B0200089B0200086C
:100100009B0200089B0200089B0200089B0200085B
:10011000DD440008F9440008094400089B02000877
:100120009B020008350900089B0200089B0200089A
:100130009B0200089B0200089B0200089B0200082B
:100140009B0200089B0200089B0200089B0200081B
:100150009B0200089B0200089B0200082D4A000831
:100160009B0200089B0200089B0200089B020008FB
:100170009B0200089B0200089B0200080000000090
:100180009B0200089B020008054500089B0200082E
:100190009B0200089B0200089B0200089B020008CB
:1001A0009B0200089B0200089B020008DFF80CD0AD
:1001B00000F046FB00480047F55B0008481A0120A4
:1001C0002C4B19680868B0E8F04F80F30988BFF33A
:1001D0006F8F4FF0000080F311887047000000001F
:1001E00008480068006880F308884FF0000080F33A
:1001F000148862B661B6BFF34F8FBFF36F8F00DF15
:1002000000BF00BF08ED00E0DFF80C00016841F41A
:1002100070010160704700BF88ED00E0EFF30980D6
:10022000BFF36F8F134B1A681EF0100F08BF20ED3D
:10023000108A20E9F04F106009B44FF0500080F3AD
:100240001188BFF34F8FBFF36F8F07F029F84FF07E
:10025000000080F3118809BC19680868B0E8F04F05
:100260001EF0100F08BFB0EC108A80F30988BFF3AE
:100270006F8F704728000020EFF305807047000063
:100280000648804706480047FEE7FEE7FEE7FEE730
:10029000FEE7FEE7FEE7FEE7FEE7FEE7113F0008A8
:1002A000AD0100082DE9F05F0546002092469B460F
:1002B00088460646814640241BE02846414647467C
:1002C000224600F007F953465A46C01A914110D30E
:1002D00011461846224600F0EEF82D1A67EB010889
:1002E0004F4622460120002100F0E5F817EB0009F7
:1002F0004E41201EA4F10104DFDC484631462A4667
:100300004346BDE8F09F40EA01039B0703D009E0A4
:1003100008C9121F08C0042AFAD203E011F8013BF1
:1003200000F8013B521EF9D27047D2B201E000F84A
:10033000012B491EFBD270470022F6E710B5134689
:100340000A4604461946FFF7F0FF204610BD30B5B7
:1003500005462A460B4612F8010B13F8014B08B16B
:10036000A042F8D01CB1002802D06D1CF1E728464D
:1003700030BD421C10F8011B0029FBD1801A7047C8
:10038000034611F8012B00F8012B002AF9D1184679
:1003900070472DE9F04D81EA030404F0004B21F091
:1003A000004514464FF0000A23F0004150EA0502D0
:1003B00020D054EA01021DD0C5F30A570246C5F306
:1003C0001303C1F31300C1F30A5640F4801543F43C
:1003D0008013A7EB0608101BD64608F2FD3873EB16
:1003E000050002D308F1010801E092185B41B8F161
:1003F000000F03DA00200146BDE8F08D00204FF425
:100400008011064684460EE0171B73EB050705D3E3
:10041000121B63EB050306434CEA010C49084FEA43
:10042000300092185B4150EA0107EDD152EA030017
:1004300012D082EA040083EA0501084305D0101BAC
:10044000AB4106D20122002306E000224FF0004318
:1004500002E06FF0010253101AEB06004CEB08515A
:1004600010EB0A0041EB0B01BDE8F04D00F042B883
:100470000EB540F2334102910021CDE900110A4648
:100480000B4600F046F803B000BD30B50B46014600
:1004900000202022012409E021FA02F59D4205D323
:1004A00003FA02F5491B04FA02F52844151EA2F1CD
:1004B0000102F1DC30BD202A04DB203A00FA02F10F
:1004C000002070479140C2F1200320FA03F3194342
:1004D00090407047202A04DB203A21FA02F00021E4
:1004E000704721FA02F3D040C2F120029140084344
:1004F0001946704710B5141E73F1000408DA401C49
:1005000041F1000192185B411A4301D120F0010032
:1005100010BD2DE9F04D92469B4611B1B1FA81F222
:1005200002E0B0FA80F220329046FFF7C4FF0446A2
:100530000F4640EA0A0041EA0B0153465A46084377
:1005400013D0114653EA010019D0C8F140025046B9
:10055000FFF7C0FF05460E46504659464246FFF794
:10056000AAFF084305D0012004E020463946BDE833
:10057000F08D0020054346EAE0762C4337430A9885
:100580006305E40AA0EB08000022FD0A44EA475490
:100590000A3002D500200146E9E70105101969413A
:1005A000DDE9084500196941BDE8F04DA2E72DE9F4
:1005B000FE4F804681EA0300C00F0C46009021F0F8
:1005C000004123F00045B8EB0200A94105D24046A6
:1005D000214690461C460B46024623F0004010433D
:1005E00047D0270DC7F30A00C3F30A510290401AFF
:1005F000019040286BDAC3F3130040F4801B00988D
:10060000924620B10023D2EB030A63EB0B0B019857
:100610005946C0F140025046FFF74DFF06460D46D1
:1006200050465946019A00F01DF910EB080061414F
:10063000002487EA115284EAE7731A4340D0009AF3
:1006400062B3019A012A4FEA075215DC001B61EBE5
:1006500002014FF0004202EA0752CDE90042001CBD
:1006600041F5801132462B46FFF753FF03B0BDE83A
:10067000F08F40462146F9E7001B61EB0201001CA8
:1006800041F5801300185B412018A2F5001747EBD5
:10069000030140EAD570B6196D4111E06D084FEACB
:1006A000360645EAC0754FEA0752001B61EB0201AE
:1006B000001C41F5801149084FEA300000195141F2
:1006C00032462B4603B0BDE8F04FFFF713BF00984A
:1006D000012240000023D0EB020263EBE07300989C
:1006E00021464FEAE074B8EB000061EB0401E9E752
:1006F00083F000435BE781F0004158E72DE9FE4FAE
:1007000081EA030404F0004421F0004100944FF01A
:10071000000B23F0004350EA01045ED052EA0304C8
:100720005BD0C3F30A54C1F30A552C44A4F2F3344A
:100730000194A0FB0254C1F3130141F48011C3F3EF
:10074000130343F4801301FB024400FB034E840AAD
:10075000970A44EA815447EA8357A4FB0768029545
:100760008D0A05FB07854FEA932C04FB0C542705E3
:10077000029D4FEA065847EA1637B5EB08056EEBBF
:10078000070C870E920E47EA811742EA8312A7FBF5
:100790000201B6EB0B0164EB00042B0D43EA0C33B2
:1007A0005E1844EB1C50DA465146E7FB0201C5F3E4
:1007B00013044FEA0B3343EA14534FEA0432019C0B
:1007C00043EA0603A4F10C040294009CCDE900B4B2
:1007D000FFF79FFE03B0BDE8F08F00200146F9E768
:1007E000C1F30A52C1F3130140F2FF3341F4801107
:1007F0009A4202DA00200146704740F233439A429F
:10080000A2F2334202DC5242FFF764BEFFF753BE4E
:1008100030B5041E71F1000404DB4FF00044404287
:1008200064EB0101141E73F1000405DB1C464FF05C
:100830000043524263EB0403994208BF904230BD2B
:10084000064C074D06E0E06840F0010394E807001D
:1008500098471034AC42F6D3FFF7ACFCBC7E0008DE
:10086000DC7E0008202A06DBCB17203A41FA02F092
:1008700043EAE07306E041FA02F3D040C2F12002FD
:10088000914008431946704770B58C1810F8015B09
:1008900015F0070301D110F8013B2A1106D110F819
:1008A000012B03E010F8016B01F8016B5B1EF9D11D
:1008B0002B0705D40023521E0DD401F8013BFAE7A3
:1008C00010F8013BCB1A921C03E013F8015B01F80E
:1008D000015B521EF9D5A142D8D3002070BDFEE7BE
:1008E00070B50C46054603F0CFF920EA040128460E
:1008F000BDE8704004F0C8B8014800F0FBB8000043
:1009000028050020014800F0F5B800004806002046
:10091000014800F0EFB80000C8040020014800F0D2
:10092000E9B8000088050020014800F0E3B80000A5
:10093000E8050020014800F0DDB80000A80600200E
:1009400001681823CAB2103AB2FBF3F2054B6FF3F9
:100950000901032A9B5CC36500D9091D816508460E
:1009600070470000947D000810B5014600208B6997
:100970008A6A4FF0C07453B1B3F5005F15D072B1FD
:10098000012A0CD0022A0AD0032A09D104E01AB1A4
:10099000012A06D0022A03D1C96AC90100D5012063
:1009A00010BDC96AA142FAD010BD002AF7D0012AB1
:1009B000F2D0022AF3D0032AF3D010BD10B50C46B2
:1009C000811D4FF40062204602F032F82068C168B1
:1009D00041F01001C16010BD30B50468256825F4F0
:1009E00080252560046863608368402B036803D01A
:1009F00099600068C26030BD9A600068C16030BD17
:100A000001490248FFF7DABF08040020D6DC0020C5
:100A100001490248FFF7D2BF480400206CCC0020F7
:100A200001490248FFF7CABF8804002040ED0020BA
:100A300070477047014805F059B800006CCC0020A1
:100A40002DE9F0410446876D00F0C8FA064694F897
:100A500035000025022806D08020606584F83450D7
:100A60000120BDE8F0812068016821F016010160D5
:100A70002068416921F080014161206C08B9A06CB7
:100A800020B12068016821F0080101602068016838
:100A900021F0010101600BE000F0A0FA801B0528A5
:100AA00006D92020606504F8345F03206070D8E721
:100AB00020680068C007EFD194F85C103F208840A0
:100AC000B86004F8345F012060700020C9E790F836
:100AD0003510022903D0802141650120704705218E
:100AE00080F835100068016821F0010101600020E4
:100AF000704700002DE9F84304464FF00009CDF897
:100B0000009063484FF41651A56D0068B0FBF1F7F3
:100B10002E6894F85C10082000FA01F131420FD0E1
:100B200021680A6852070BD50A6822F004020A609D
:100B300094F85C108840A860606D40F0010060652A
:100B400094F85C104FF0010808FA01F0304208D028
:100B500021684969090604D5A860606D40F002006B
:100B6000606594F85C1004208840304208D0216809
:100B70000968890704D5A860606D40F004006065CD
:100B800094F85C1010208840304218D02168096821
:100B9000090714D5A86020680168490304D50068D6
:100BA000000308D5A16C07E00168C90503D40168FA
:100BB00021F008010160216C09B12046884794F8B2
:100BC0005C1020208840304231D021680968C90675
:100BD0002DD5A86094F8350005282068016806D056
:100BE000490347D5006800031DD4616C1CE021F067
:100BF000160101602068416921F080014161206C8B
:100C000008B9A06C20B12068016821F008010160DA
:100C100094F85C103F208840A86084F8349084F8F1
:100C20003580216D1FE0E16B09B120468847606D7A
:100C300000282BD0606DC00714D0052084F8350043
:100C40002068016821F0010101600098401C0090BB
:100C5000B84203D820680068C007F6D184F8349001
:100C600084F83580E16C002910D001B02046BDE841
:100C7000F04308470168C905D5D4016821F0100187
:100C8000016084F8349084F83580CCE7BDE8F883BF
:100C9000240000202DE9F041044600F09FF90646AB
:100CA0005CB1002584F83450022084F835002068B7
:100CB000016821F0010101600DE00120BDE8F08133
:100CC00000F08CF9801B052805D9202060650320E1
:100CD00084F83500F2E720680068C007F0D1226888
:100CE000116820480140D4E901031843D4E90336D0
:100CF0003343184363691843A3691843E3691843EE
:100D0000236A18430843616A042903D1D4E90B1309
:100D100019430843106020684069666A20F00701A3
:100D200030460E43012704280CD1A06A0643E06A2E
:100D300040B12046FFF718FE20B14020606584F8DE
:100D40003570BAE7206846612046FFF7F9FD94F850
:100D50005C203F2191408160656584F835700020FA
:100D6000ACE700003F8010F02DE9F0410446866DAD
:100D700090F83400002501280DD0012084F83400BB
:100D800094F835700020012F07D084F83400022534
:100D90002846BDE8F0810220FBE7022784F8357081
:100DA00060652046FFF718FE94F85C103F208840ED
:100DB000B0602068016841F0160101602068416957
:100DC00041F080014161206C20B12068016841F050
:100DD000080101602068016841F001010160D7E766
:100DE00070B5044600F0FAF80546601C02D00448CD
:100DF0000078044400F0F2F8401BA042FAD370BD22
:100E0000180000202DE9F84FDFF890B100224FF0D4
:100E100001084FF0030A4FF00F090BF1040E00BF59
:100E20000B6808FA02F42340A3426ED14D68022DEC
:100E300001D0122D0ED1D50800EB850CDCF8205026
:100E40005607F70E09FA07F6B5430E69BE402E4362
:100E5000CCF82060066855000F790AFA05FC07F007
:100E6000030726EA0C06AF40374307604E68012EA1
:100E700005D0022E03D0112E01D0122E0ED187687C
:100E8000CE6827EA0C07AE403E4386604668A6431C
:100E90000C79C4F30014944034434460C4688E68F1
:100EA00024EA0C04AE402643C6604C68E4006FD5CB
:100EB0003B4C256845F480452560246822F00305F5
:100EC00004F480440094374C2E19D6F8084895074E
:100ED0002F0F09FA07F5AC43334DA84201D1002585
:100EE0002EE0324DA84201D1012529E0304DA84223
:100EF00001D1022524E02F4DA84201D103251FE096
:100F00002D4DA84202D104251AE041E02B4DA84204
:100F100001D1052514E02A4DA84201D106250FE094
:100F2000284DA84201D107250AE0274DA84201D14A
:100F3000082505E0254DA84201D1092500E00A2534
:100F4000BD402543C6F80858DBF800405D464E68B2
:100F50009C43F60300D51C432C60DEF80040754628
:100F60004E689C43B60300D51C432C600B4D0835DE
:100F70002C684E689C43F60200D51C432C60074D3C
:100F80000C352C684E689C43B60200D51C432C607F
:100F9000521C102AFFF444AFBDE8F88F003C01401A
:100FA000443802400030014000000240000402408A
:100FB00000080240000C02400010024000140240F1
:100FC00000180240001C02400020024000240240A1
:100FD0000AB1816170470904FBE70000014880689D
:100FE000704700001800002070B5040011D021687F
:100FF0004CF6CC400860216845F255500860D4E9B1
:10100000000141602168A0688860FFF7E7FF05469E
:1010100009E0012070BD00BFFFF7E0FF401B302852
:1010200001D9032070BD2068C0680028F4D1216870
:101030004AF6AA200860002070BD00684AF6AA217E
:101040000160002070470000024881680278114466
:1010500081607047180000200B4810B5016841F40A
:1010600000710160016841F480610160016841F430
:1010700080710160032000F08DF8002000F006F878
:1010800000F03EF8002010BD003C024010B50146C3
:1010900088B00022192000F05DF8192000F04CF80B
:1010A00013480024016841F001010160006805A9AE
:1010B00000F001000690684600F06EFA00F09CFA1D
:1010C0000C494000B0FBF1F10C480B4A491E02608C
:1010D00040F2E732C0E90324C0E9011401F00AF943
:1010E00010B1012008B010BD044801F033F9F9E750
:1010F0004438024040420F00000001400807002031
:101100000C4882B0016841F480410160006800F43D
:10111000804000900748001F016841F08051016045
:101120000068002200F0805000900F21901E02B055
:1011300000F010B844380240002809DB00F01F021C
:10114000012191404009800000F1E020C0F8001129
:1011500070470000F0B40E4B1B680C46C3F302232B
:10116000C3F10705042D00D90425191D072901D253
:10117000002300E0DB1E012606FA05F1491E21408E
:1011800099409E40761E16403143F0BC03F0BABC35
:101190000CED00E0064900F0070208684FF6FF0377
:1011A000184040EA0220034A1043086070470000DC
:1011B0000CED00E00000FA052DE9F843174801683E
:1011C00041F0805101600068154F00F08050012609
:1011D00000903E64FFF702FF05464FF47A78114C09
:1011E00005E000BFFFF7FAFE401B40450DD86068E0
:1011F000C003F7D57E64FFF7F1FE0546464607E0DB
:10120000FFF7ECFE401BB04202D90320BDE8F88393
:1012100060688003F4D50020F8E700004038024001
:1012200000000E42007000402DE9F84F04460068AF
:10123000DFF804A2814F824DC1074FF001084FF043
:10124000000601D180073CD5CAF86860FFF7C6FEEA
:10125000814605E0FFF7C2FEA0EB0900022878D81E
:1012600028680001F6D42078C107764805D0616867
:10127000227A890141EA027101602178890711D53A
:1012800001686268237B9201C1F3027142EA036242
:1012900042EA017101603868E16920F01F00491ECF
:1012A00008433860CAF86880FFF798FE814605E079
:1012B000FFF794FEA0EB090002284AD82868000135
:1012C000F6D52068410701D400074CD5CAF87060F4
:1012D000FFF784FE814605E0FFF780FEA0EB0900E2
:1012E000022836D82868C0438000F5D52078410709
:1012F000554814D501682269237D9201C1F302711A
:1013000042EA036242EA017101603968226A6FF0C1
:10131000FF0321F4F85103EB0222114339602178D5
:10132000090710D501682269C1F30361920142EAFD
:101330000161227E41EA027101603868616A20F42D
:10134000403008433860CAF87080FFF747FE074610
:1013500005E048E0FFF742FEC01B022843D828689A
:10136000C0438000F6D42078800653D534484030FE
:10137000016841F0805101600068344D00F08050F8
:101380000090286840F480702860FFF727FE074629
:1013900005E000BFFFF722FEC01B022823D8286803
:1013A000C005F7D5274D143D286810F4407020D0B3
:1013B000218D01F4407181421BD02868244920F41A
:1013C0004070C1F800800E6028602868C00710D007
:1013D000FFF704FE064641F2883707E0FFF7FEFDFF
:1013E000801BB84202D90320BDE8F88F2868800727
:1013F000F4D5A16A1248C1F301220830032A13D0A0
:10140000016821F4F81101602868218DC1F30B01F6
:10141000084328602078C00604D50E4994F82C00B3
:10142000C1F8E0010020DFE702680B4B22F4F8125C
:1014300019400A430260E7E7000047428C38024047
:101440000038024084380240883802400070004072
:10145000400E474200104742FFFCFF0F2DE9F047C6
:101460000E46050065D0DFF81481D8F80000F7B209
:1014700000F00F00B04207D288F80070D8F80000E2
:1014800000F00F00B04254D128683D4C810712D5BE
:10149000400703D5206840F4E0502060287800071A
:1014A00003D5206840F4604020602068A96820F0DF
:1014B000F000084320602878C0072DD030496868C4
:1014C0000839012812D0022813D0032811D0096846
:1014D000890700292DDA216821F0030101432160E9
:1014E000FFF77CFD814641F2883A0EE009688903E6
:1014F000EFE709688901ECE7FFF770FDA0EB090150
:10150000514502D90320BDE8F0872068696800F0E2
:101510000C00B0EB810FEFD1D8F80010404601F07D
:101520000F01B14207D90770006800F00F00B04208
:1015300001D00120E7E72878400705D52068E96851
:1015400020F4E050084320602878000706D5206882
:10155000296920F4604040EAC100206000F05CF896
:101560002168084AC1F30311515CC840064908606C
:101570000020FFF78BFD0020C5E70000003C024083
:10158000083802409C7D0008240000200149012009
:10159000C8647047000047420F2202600C4A13687B
:1015A00003F003034360136803F0F00383601368E0
:1015B00003F4E053C36012684FF4E05303EAD2022D
:1015C00002610448006800F00F00086070470000E6
:1015D00008380240003C0240044805490068096898
:1015E000044AC1F38221515CC840704724000020A6
:1015F00008380240AC7D00080448054900680968C5
:10160000044AC1F34231515CC840704724000020B5
:1016100008380240AC7D0008154810B5006810F08D
:101620000C02144813D01449042A0FD0082A0ED1F2
:101630000F4C241F2268236802F03F025B0207D58B
:101640002068C0F38810A0FB010106E0084610BD29
:101650002168C1F38811A1FB00010023FEF722FEDF
:101660002168C1F30141491C4900B0FBF1F010BDF4
:10167000083802400024F40040787D012DE9F84F3D
:10168000050076D02878DFF8F8B2BE4CC00749D004
:10169000DBF800105846C1F38101012908D0006829
:1016A000C0F3810002280AD1201D0068400206D53F
:1016B0002068800336D568680028E2D032E0686888
:1016C000B0F5803F10D0B0F5A02F206810D020F4E6
:1016D00080302060206820F4802020606868A0B1FD
:1016E000FFF77CFC06460CE0206840F48030F4E70D
:1016F00040F480202060F7E7FFF770FC801B64282F
:1017000073D820688003F7D50CE0FFF767FC064626
:1017100005E000BFFFF762FC801B6428F0D820685A
:101720008003F7D42878DFF8608280074FF0000943
:101730003ED5DBF80010584611F00C0F09D00068B8
:10174000C0F3810002280BD18D48001F00684002C1
:1017500006D42068800715D5E868012809D111E072
:10176000E868B8B10120C8F80000FFF737FC06466A
:1017700005E002E1FFF732FC801B0228C0D8206898
:101780008007F7D52068296920F0F80040EAC100F9
:1017900020600DE0C8F80090FFF720FC064604E04A
:1017A000FFF71CFC801B02281FD820688007F7D495
:1017B0002878000722D5724E744869696C3671B179
:1017C00001210160FFF70AFC074604E0FFF706FC71
:1017D000C01B022809D830688007F7D50EE0C0F892
:1017E0000090FFF7FBFB074605E083E0FFF7F6FB01
:1017F000C01B02287ED830688007F7D428784007BD
:1018000068D5DFF87CA100270AF1380ADAF8000071
:10181000C0000BD4DAF8001041F08051CAF8001073
:10182000DAF80000012700F080500090584E306830
:10183000C00510D4306840F480703060FFF7CEFBF4
:10184000009005E0FFF7CAFB0099401A022851D822
:101850003068C005F6D54A4EA868683601280FD012
:101860000528306810D020F001003060306820F08A
:1018700004003060A868B8B1FFF7B0FB00900FE03B
:10188000306840F00100F4E740F004003060F7E712
:10189000FFF7A4FB0099411A41F28830814264D8D5
:1018A00030688007F4D50EE0FFF798FB009007E062
:1018B000FFF794FB0099411A41F28830814254D8D5
:1018C00030688007F4D42FB1DAF8001021F080518D
:1018D000CAF80010A869C0B3DBF80010C1F3810199
:1018E00002294AD00228484607D0C8F86000FFF70E
:1018F00075FB00E039E005463AE04746C8F860006D
:10190000FFF76CFB064604E0FFF768FB801B02282C
:101910002BD820688001F7D4D5E907010843A96ACC
:101920001C4A490802EB01416A6A41EA82110843F4
:1019300095F82C1040EA01611148001F0160012058
:101940003866FFF74BFB054605E014E0FFF746FB62
:10195000401B022809D820688001F7D50BE000BFA2
:10196000FFF73CFB401B022802D90320BDE8F88F9B
:1019700020688001F4D40020F8E70120F6E7000099
:10198000083802400038024000004742800E4742BB
:10199000007000400000FFFF0068503040F8212038
:1019A0007047000010B500680B4641680D480140C3
:1019B000080CD870C1F304245C7001F03F049C70E3
:1019C000C1F34231197052B902F02CF9D87058782D
:1019D00002F028F95870987802F024F998700020E5
:1019E00010BD00003FFFFF0010B50B460168896A7B
:1019F000596001680969C1F30E01996000680168C6
:101A00000E480140C1F305401870C1F306245C7014
:101A100001F07F049C70402404EA1141D97052B94E
:101A200002F000F91870587802F0FCF858709878B5
:101A300002F0F8F89870002010BD00007F7F7F0052
:101A400070B5040002D0607F10B106E0012070BDC7
:101A500000202077204600F049F8022060772168B6
:101A6000CA204862216853204862204602F0EEF8FE
:101A7000FF25042618BB206881681B4A114081603D
:101A80002168886862681043D4E904231A4310432C
:101A900088602168E068086120680169228941EA5C
:101AA000024101612068C16821F08001C1602068A5
:101AB0008068800607D4204600F0FEF818B1206840
:101AC00045626677C2E72068016C21F480210164D9
:101AD0002068016CA26911430164206845620120FD
:101AE0006077002070BD0000BFFF8FFF00680349D2
:101AF000884202D102490120086070470028004056
:101B00003C0E47422DE9F0470446007F0B46012872
:101B10001FD04FF0010984F81C9002206077DAB1E1
:101B20009878D97840EA014558781978000240EA57
:101B3000413005432168CA20486221685320486229
:101B4000204602F083F80026FF274FF0040860BB10
:101B50001AE00220BDE8F0875878C10603D500F0EE
:101B6000EF000A305870D87802F065F8020458780F
:101B700002F061F842EA0022987802F05CF8024331
:101B8000187842EA4035D5E70F480540206845609F
:101B90002068C16821F08001C160206880688006EB
:101BA0000AD4204600F088F830B12068476284F8F3
:101BB0001D8026770120CDE72068476284F81D90BC
:101BC00026770020C6E700003FFFFF002DE9F04721
:101BD0000446007F0D46012827D04FF0010A84F803
:101BE0001CA0022060772068002680684FEA4060D1
:101BF000F2B1002800DBEE70A878297840EA0147AE
:101C00006878E978000240EA014007432168CA2069
:101C10004862216853204862204602F017F84FF0CE
:101C2000FF084FF00409A0BB16E00220BDE8F087D2
:101C3000002800DBEE70287801F0FDFF02046878D0
:101C400001F0F9FF42EA0022A87801F0F4FF024314
:101C5000E87842EA0047D9E716480740206807605D
:101C60002068816821F480218160D5E9030108435F
:101C700021688A68104388602068C16821F080016B
:101C8000C1602068806880060BD4204600F014F8FC
:101C900038B12168C1F8248084F81D90267701208E
:101CA000C4E72168C1F8248084F81DA026770020AD
:101CB000BCE700007F7F7F0070B504460068C16804
:101CC00021F0A001C160FFF789F905464FF47A764B
:101CD00007E000BFFFF782F9401BB04201D90320A3
:101CE00070BD2068C0688006F4D5002070BD70B556
:101CF000040005D00025A56294F8510010B106E05B
:101D0000012070BD84F85050204600F031F80220C8
:101D100084F851002068016821F040010160D4E995
:101D200001010843D4E903121143084361690843E0
:101D3000218B01F400710843E1690843216A0843DB
:101D4000A16A084321680860A069042101EA1040E3
:101D5000616A0843216848602068C16921F4006114
:101D6000C1616565012084F85100002070BD00004C
:101D700070B586B0044614216846FEF7DDFA234E9E
:101D8000226800212248022303240525B2421AD1E9
:101D90001F4A1432166846F480561660126802F420
:101DA00080520592026842F001020260006802AAB5
:101DB00000F00100059082E83200E020CDE9000348
:101DC000694614481DE0144EB2421CD1104A10322C
:101DD000166846F480461660126802F48042059246
:101DE000026842F002020260006802AA00F00200EB
:101DF000059082E832004FF46040CDE90003694667
:101E00000648FEF7FFFF06B070BD0000003001403D
:101E10003038024000000240003800400004024018
:101E20002DE9F84F044640680025984616460F46AF
:101E30004FF0040BB0F5827F01D1A06888B194F80F
:101E40005000012818D0012084F85000FFF7C6F890
:101E5000814694F851004FF0000A01280ED0022567
:101E60007DE084F851B013460A462046CDF8008044
:101E700000F02CF9BDE8F88F0220FBE7002F6DD0B1
:101E8000002E6BD084F851B0C4F854A0A763A68785
:101E9000E687C4F830A0A4F834A0A4F836A0C4F8AB
:101EA00040A0C4F844A0A068B0F5004F04D1206859
:101EB000016821F48041016020680168490603D46B
:101EC000016841F040010160E068D8B139E0206864
:101ED0008168C90709D0007BA16B0870A06B401C0A
:101EE000A063E08F401EE0870CE0FFF777F8A0EBDF
:101EF0000901414503D3B8F1FF3F03D036E0B8F103
:101F0000000F33D0E08F0028E1D11DE02068816808
:101F1000C90709D0C068A16B0880A06B801CA063B2
:101F2000E08F401EE0870CE0FFF758F8A0EB0901B6
:101F3000414503D3B8F1FF3F03D017E0B8F1000FDC
:101F400014D0E08F0028E1D14A464146204601F0F6
:101F5000B7FE08B120206065606D00B10125012049
:101F600084F8510084F850A0284683E70325F6E75B
:101F70002DE9F84F044690F8500000271D461646FC
:101F8000894601280DD04FF0010B84F850B0FFF7BF
:101F900025F8804694F85100BA46012804D002275B
:101FA0008EE00220BDE8F88FB9F1000F7DD0002E41
:101FB0007BD0032084F85100C4F854A0C4F83090BA
:101FC000A686E686C4F838A0A4F83CA0A4F83EA0F3
:101FD000C4F844A0C4F840A0A068B0F5004F04D1F4
:101FE0002068016841F48041016020680168490669
:101FF00003D4016841F040010160E068B0F5006F72
:10200000606803D030B3012E24D040E008B1012E27
:102010001CD1206B21680088C86006E020688168B8
:10202000890709D5216B0988C160206B801C20635A
:10203000E08E401EE08609E0FEF7D0FFA0EB08002E
:10204000A84202D3681C01D031E07DB3E08E0028A5
:10205000E4D11FE0206B21680078087306E0206857
:102060008168890709D5216B09780173206B401CB1
:102070002063E08E401EE08609E0FEF7AFFFA0EB94
:102080000800A84202D3681C01D010E075B1E08EB0
:102090000028E4D142462946204601F032FE08B12C
:1020A00020206065A06820B107E008E0FFE7032773
:1020B00006E02068C16880680090606D00B101276B
:1020C00084F851B084F850A038466BE72DE9F84FFA
:1020D000044690F8500000270A9E1D4692468B4603
:1020E0004FF0010901280ED0012084F85000FEF7BE
:1020F00075FF804694F85100616801280CD0B1F555
:10210000827F07D102E00220BDE8F88FA16809B9FB
:10211000042801D00227C2E0BBF1000F27D0BAF19A
:10212000000F24D01DB394F85100042802D00520DC
:1021300084F8510000206065C4F838A0E587A587C1
:10214000C4F830B0E586A586206460642068016824
:10215000490603D4016841F040010160E068B0F530
:10216000006F606805D0E8B3012D46D07FE00127FD
:1021700095E008B1012D39D1206B21680088C86035
:10218000206B801C2063E08E401EE0862EE02068DD
:10219000816889070FD5E18E69B1B9F1010F0AD1C4
:1021A000216B0988C160206B801C2063E08E401E7B
:1021B000E0864FF0000920688168C9070CD0E18FE4
:1021C00051B1C068A16B0880A06B801CA063E08F38
:1021D000401EE0874FF00109FEF700FFA0EB08006A
:1021E000B04200E009E001D3701C50D1E08E00281D
:1021F000CDD1E08F0028CAD13FE0206B2168007864
:102200000873206B401C2063E08E401EE0862EE0A9
:102210002068816889070FD5E18E69B1B9F1010F96
:102220000AD1216B09780173206B401C2063E08E7A
:10223000401EE0864FF0000920688168C9070CD075
:10224000E18F51B1C068A16B0870A06B401CA06306
:10225000E08F401EE0874FF00109FEF7BFFEA0EBC4
:102260000800B04202D3701C01D010E07EB1E08EB5
:102270000028CDD1E08F0028CAD142463146204601
:1022800001F03FFD28B101272020606507E003270A
:1022900005E0A06818B92068C16880680090012036
:1022A00084F85100002084F8500038462CE770472D
:1022B000704770B590F83C20012A19D0012400F82D
:1022C0003C4F0222427050F83C3C5A689D6822F014
:1022D00070060A684968324325F0800529435A6030
:1022E00050F83C2C9160447000210170084670BD8C
:1022F000022070BD10B5040003D094F83D0010B169
:1023000007E0012010BD002084F83C00204600F0CA
:102310000DF8022084F83D00211D206802F07AF8B3
:10232000012084F83D00002010BD000008B50068C1
:102330000649884208D10648016841F01001016051
:10234000006800F01000009008BD00000010004080
:10235000403802400168CA6842F00102CA60006861
:10236000816801F00701062903D0016841F00101ED
:10237000016000207047704770B50446006801692D
:102380004FF00005C943890715D4C168C9438907BF
:1023900011D4E91E0161012020772068806980073F
:1023A000204602D0FFF7E7FF04E000F098F820464F
:1023B00000F096F8257720680169C943490717D4CA
:1023C000C168C943490713D46FF0040101610220B9
:1023D00020772068806910F4407F204602D0FFF704
:1023E000CAFF04E000F07BF8204600F079F825777A
:1023F00020680169C943090716D4C168C9430907A0
:1024000012D46FF008010161042020772068C069B0
:102410008007204602D0FFF7AEFF04E000F05FF82F
:10242000204600F05DF8257720680169C943C90698
:1024300017D4C168C943C90613D46FF010010161F4
:10244000082020772068C06910F4407F204602D021
:10245000FFF791FF04E000F042F8204600F040F85A
:10246000257720680169C943C90708D1C168C943F4
:10247000C90704D1891E0161204600F033F82068A5
:102480000169C943090609D4C168C943090605D4CD
:102490006FF0800101612046FFF709FF20680169A4
:1024A000C943490609D4C168C943490605D46FF038
:1024B00040010161204600F02DF820680169C94300
:1024C00089060BD4C168C943890607D46FF020017F
:1024D00001612046BDE87040FFF7EABE70BD70475D
:1024E0007047000010B5044600680749884201D1D2
:1024F000FEF7AAFD05492068884203D10448016817
:10250000491C016010BD00000000014000100040A7
:1025100004000020704710B504460068416994F833
:102520003920C1F3C011212A0BD151B1416921F0E9
:1025300080014161206B08B1FEF782FA204602F06B
:1025400045F82068416994F83A20C1F38011222AA5
:102550000BD151B1416921F040014161606B08B17B
:10256000FEF76EFA204602F023F8002010BD7047F7
:1025700070B5026804461068D168536910F00F0FF7
:1025800050D003F0010501F4907635435DD0C207C9
:1025900005D0CA0503D5E26B42F00102E2634207AF
:1025A00005D5DA0703D0E26B42F00202E26382074C
:1025B00005D5DA0703D0E26B42F00402E2630207BA
:1025C00005D5DA0703D0E26B42F00802E263E26B62
:1025D000002A33D0800604D5880602D5204601F0B3
:1025E000FEFF20684069E16BC0F38010090700D44A
:1025F00028B3204601F0DCFF2068416949061AD55E
:10260000416921F040014161606BA0B11B49016546
:10261000606BFEF75CFA002810D0606B016DBDE8BE
:1026200070400847830610D58B060ED52046BDE8BE
:10263000704001F0D4BF2046FFF799FF70BD2046DF
:10264000FFF795FF0020E06370BD030606D50B067B
:1026500004D52046BDE8704002F062B94006F3D5CB
:102660004806F1D5D168204621F04001D1602021F3
:1026700084F8391000F087FA70BD00001145000899
:1026800070B5040004D094F83900002510B106E0BC
:10269000012070BD84F83850204600F023F8242033
:1026A00084F839002068C16821F40051C1602046D7
:1026B00001F0E0FF2068016921F490410161206888
:1026C000416921F02A0141612068C16841F400514B
:1026D000C160E563202084F8390084F83A000020C6
:1026E00070BD00002DE9F04F87B005461421684603
:1026F000FDF722FEBE48DFF8F4C22B680024BC4977
:102700001038022701260822DFF8E8E24FF003081C
:102710004FF0006A4FF4806963452BD10B6843F496
:1027200000230B60096801F400210591016841F064
:10273000010101600068CDE9008700F00100CDE9EA
:102740000420CDE9026869467046FEF75BFBAB4E9C
:10275000A9483060C6E901A4C6E903497461B461BF
:10276000F46134623046746238E16E63B56307B079
:10277000BDE8F08FDFF888C263453DD10B6843F4B4
:1027800080130B60096801F480110591016841F024
:1027900004010160016801F004010591016841F044
:1027A00008010160006802AB00F0080005904FF4DA
:1027B0008050CDE90007934683E840096946914877
:1027C000FEF720FB0420CDE9000702AB694683E851
:1027D00040098D48FEF716FB8748884E3038603632
:1027E0003060C6E901A4C6E903497461B461F461CB
:1027F000346230467462F1E0DFF810C263452BD1D9
:102800000B6843F080430B60096801F0804105913B
:10281000016841F0200101600068029600F020008C
:102820000590C020CDE90007CDE9038269467848CC
:10283000FEF7E8FA7048714E1830C03630604FF03D
:102840002060C6E90104C6E903497461B461F4611A
:10285000346230467462C1E0DFF8B8C14FF0070B54
:10286000634531D16249091D0A6842F010020A60CD
:10287000096801F010010591016841F00101016052
:102880000068029600F0010005904FF40070CDE959
:102890000007CDE9037B5C46694675467046FEF746
:1028A000B1FACDF80090CDE90384CDE9017669460F
:1028B0002846FEF7A7FA002205212520FEF74AFC4C
:1028C0002520FEF739FC52E7DFF84CC1634528D1DB
:1028D0000A6842F400320A60096801F40031059187
:1028E000016841F001010160006802AA00F00100E6
:1028F00005900C20CDE9000782E840096946704642
:10290000FEF780FA3C48454E48303060C6E901A4E5
:10291000C6E903497461B461F4613462304674629B
:102920005CE0DFF8FCC063452AD10A6842F48022EB
:102930000A60096801F480210591016841F00201F3
:102940000160006802AA00F0020005904FF44060A8
:10295000CDE9000782E8400969463248FEF752FA9D
:1029600025482E4E183860363060C6E901A4C6E905
:1029700003497461B461F4613462304674622DE0DD
:1029800029498B429FD11A49091D0B6843F0200346
:102990000B60096801F020010591016841F0040114
:1029A00001600068029600F004000590C020CDE9A7
:1029B0000007CDE9038269461248FEF723FA174E55
:1029C0001A48C03630608005C6E90104C6E90349EB
:1029D0007461B461F461346230467462FEF75AF98E
:1029E00000283FF4C2AEFEF724F8BEE6004C0040DB
:1029F000403802400000024040600240C80400200D
:102A00000050004000080240000C024000780040E6
:102A1000001402400010014000440040E80500207E
:102A200000480040000402400014014028640240B5
:102A3000F8B5044690F83A0020283CD1C1B3BAB3A7
:102A400094F83800012836D0012084F83800A162BB
:102A5000A2850025E563222084F83A00636B1748BD
:102A6000D863636B16481864636B1648D864606B50
:102A7000134605650846666B216802463046091D07
:102A8000FEF772F9206801684168009184F83850B7
:102A9000C16841F48071C1602068416941F0010161
:102AA00041612068416941F0400141610020F8BD69
:102AB000FFE70120FBE70220F9E700006B45000873
:102AC000A745000821450008704770472DE9F843E5
:102AD000044690F839001F4616460D46202850D16E
:102AE000A5B19EB194F8380001284AD0012084F89D
:102AF00038004FF00008C4F83C80212084F83900E9
:102B0000FEF76CFAA6848146E68426E00120BDE843
:102B1000F883E08C401EE084A0684B46B0F5805FEF
:102B20004FF000024FF080012046009703D001F0E3
:102B300028FFE8B90DE001F024FFC8B92888216812
:102B4000C0F308004860206908B16D1C05E0AD1CA9
:102B500003E0216815F8010B4860E08C0028D8D10B
:102B60004B46002240212046009701F00AFF08B1A1
:102B70000320CCE7202084F8390084F83880002036
:102B8000C5E70220C3E77047FEE700000148FEF7F3
:102B900054BA0000EC01002010B5412801D0FF20FC
:102BA00010BD08210846FDF79BFE3D21112001F0D4
:102BB0006BFF8621172001F067FF7F21262001F09F
:102BC00063FF1E212D2001F05FFF00212C2001F06A
:102BD0005BFF8D212A2001F057FF3E212B2001F0C1
:102BE00053FF0120FEF7FCF800F0E8FE002010BDC6
:102BF00070B50024234608E0CD181B1DEE782D6823
:102C000066F31F6540F82450641C9342F4D370BDF2
:102C100070B500231C4611E011F82350055531F81A
:102C200023502E0A05196E7051F82360360CAE70D1
:102C300051F823605B1C360EEE70241D9442EBD3DA
:102C400070BD00007CB5044600880E46C0F3C50088
:102C5000382802D2C0F1380501E0C0F17805082219
:102C600021466846FFF7D4FF2A460849204600F06F
:102C70007FFB08226946204600F07AFB102204F10F
:102C800008013046FFF7C4FF7CBD0000A80000200B
:102C9000002101604160054981600549C160034927
:102CA000C94301610249C943416170470123456736
:102CB00089ABCDEF2DE9F0410446C0B054F8048B48
:102CC000402294E8E0006846241FFFF791FF05EAE0
:102CD000060027EA05010843FE49009A014402EB79
:102CE0000800084405EB706000EA050126EA0002CE
:102CF0001143F94A1144019A3A44114400EB31530B
:102D000003EA000125EA03021143F44A1144029A3E
:102D10003244114403EBF13101EA030220EA0106D7
:102D20003243EF4E3244039E35442A4401EBB22233
:102D300002EA010523EA02063543EA4E3544049EC1
:102D40003044284402EB706000EA020521EA0006E4
:102D50003543E54E3544059E33442B4400EB335355
:102D600003EA000522EA03063543E04E3544069E99
:102D70003144294403EBF13101EA030520EA01065D
:102D80003543DB4E3544079E32442A4401EBB222E0
:102D900002EA010523EA02063543D64E3544089E71
:102DA0003044284402EB706505EA020021EA05067A
:102DB0003043D14E3044099E3344184405EB305023
:102DC00000EA050322EA000633430A9EA3F52443E2
:102DD00031444F3B194400EBF13303EA000125EA8B
:102DE00003063143C54E31440B9E3244114403EB7C
:102DF000B12101EA030220EA01063243C04E324407
:102E00000C9E35442A4401EB726202EA010523EA72
:102E100002063543BB4E35440D9E3044284402EB38
:102E2000305505EA020021EA05063043B64E30442B
:102E30000E9E3344184405EBF03000EA050322EA05
:102E400000063343B14E33440F9E3144194400EB26
:102E5000B12101EA050320EA05063343AC4E3344B1
:102E6000019E32441A4401EBF26202EA000321EAB5
:102E700000063343A74E3344069E35442B4402EBF1
:102E8000F35303EA010522EA01063543A24E354415
:102E90000B9E3044284403EBB04000EA020523EACD
:102EA000020635439D4E3544009E3144294400EBD3
:102EB000313101EA030520EA03063543984E3544D3
:102EC000059E32442A4401EBF26202EA000521EA3F
:102ED00000063543934E35440A9E33442B4402EB9F
:102EE000F35303EA010522EA010635438E4E3544C9
:102EF0000F9E3044284403EBB04000EA020523EA69
:102F000002063543894E3544049E3144294400EB82
:102F1000313101EA030520EA03063543844E354486
:102F2000099E32442A4401EBF26202EA000521EADA
:102F3000000635437F4E35440E9E33442B4402EB4E
:102F4000F35303EA010522EA010635437A4E35447C
:102F5000039E3044284403EBB04000EA020523EA14
:102F600002063543754E3544089E3144294400EB32
:102F7000313101EA030520EA03063543704E35443A
:102F80000D9E32442A4401EBF26202EA000521EA76
:102F9000000635436B4E3544029E33442B4402EB0E
:102FA000F35303EA010522EA01063543664E354430
:102FB000079E3044284403EBB04000EA020523EAB0
:102FC00002063543614E35440C9E31442944059D2B
:102FD00000EB3131154481EA00025D4E5A40324423
:102FE0002A44089D01EB32721D4482EA01034340EA
:102FF000584E33442B440B9D02EB7353054483EA34
:103000000200554E48403044284403EB30450E98AA
:10301000524E014485EA030050403044084405EB19
:1030200070260198811886EA05004D4A58401044E0
:10303000084406EB30720498C11882EA0600494B36
:10304000684018440844079902EB70504B1980EA15
:103050000201454D7140294419440A9B00EB31415E
:103060009D1981EA0003414E534033442B440D9D8A
:1030700001EB7323154483EA01023D4E4240324482
:103080002A44009D03EB3272054482EA0300394E64
:1030900048403044284402EB70550398364E0144B2
:1030A00085EA020058403044084405EB3041069858
:1030B000324E034481EA0500504030441844099BD5
:1030C00001EB7020134480EA01022D4E6A40324425
:1030D0001A4457E078A46AD756B7C7E8DB702024B3
:1030E000EECEBDC1AF0F7CF52AC68747134630A888
:1030F000019546FDD8988069AFF7448BBED75C89AF
:103100002211906B937198FD8E4379A62108B449E2
:1031100062251EF640B340C0515A5E26AAC7B6E9E2
:103120005D102FD65314440281E6A1D8C8FBD3E723
:10313000E6CDE121D60737C3870DD5F4ED145A4506
:1031400005E9E3A9F8A3EFFCD9026F678A4C2A8D41
:103150004239FAFF81F6718722619D6D0C38E5FDD9
:1031600044EABEA4A9CFDE4B604BBBF670BCBFBE29
:10317000C67E9B28FA27A1EA8530EFD4051D880476
:1031800039D0D4D90C9B00EB32721D4482EA000383
:10319000644E4B4033442B440F9D02EB73530D445C
:1031A00083EA0201604E414031442944029D03EB11
:1031B0003141054481EA03005C4E504030442844CC
:1031C00001EB702500985A4E024465EA030048401E
:1031D00030441044079A05EBB060134460EA0102E2
:1031E000544E6A4032441A440E9B00EBB2520B44D8
:1031F00062EA0501504E414031441944059B02EBFF
:1032000071411D4461EA00034C4E534033442B444A
:1032100001EBF3250C9B4A4E034465EA020048404B
:103220003044184405EBB0660398464B024466EA06
:10323000010068401844104406EBB0530A9801445A
:1032400063EA0500404A704010440844019903EBCA
:1032500070404A1960EA06013C4D59402944114426
:10326000089A00EBF121951961EA0302384E4240B9
:1032700032442A440F9D01EBB2621D4462EA00030E
:10328000344E4B4033442B44069D02EBB35305446C
:1032900063EA0100304E50403044284403EB70454F
:1032A0000D982E4E014465EA02005840304408440F
:1032B000049905EBF0200A4460EA0301284E6940B6
:1032C000314411440B9A00EBB161134461EA0502E9
:1032D000244E424032441A4401EBB253029A224E29
:1032E000154463EA00024A4032442A44099D03EB34
:1032F0007242054462EA01001C4E584030442844A2
:10330000256802EBF0202944216061680844606070
:10331000A0681044A060E0681844E06040B0BDE8D8
:10332000F0810000E599DBE6F87CA21F6556ACC48D
:10333000442229F497FF2A43A72394AB39A093FC96
:10334000C3595B6592CC0C8F7DF4EFFFD15D848512
:103350004F7EA86FE0E62CFE144301A3A111084E96
:10336000827E53F735F23ABDBBD2D72A91D386EB92
:103370002DE9F047054616462A680F46C2F3C501F7
:1033800002EBC60200202A60B2EBC60F6A68C1F1E8
:10339000400401D2521C6A6002EB56726A60A64277
:1033A00018D36818224639461830FCF7ACFF05F1EF
:1033B000080005F118018146FFF77CFC204604E077
:1033C00039184846FFF776FC404600F14008B04502
:1033D000F6D90021321A3B186818BDE8F0471946A3
:1033E0001830FCF790BF000070B51446FCB00246E0
:1033F0000D4666A8FFF74CFCCDE900432B4610A113
:1034000034A801F06BFB34A8FCF7B3FF024634A9E3
:1034100066A8FFF7ADFF02A966A8FFF713FC0B4EE5
:10342000002402AD06EB44002A5D09A101F056FB21
:10343000641CE4B2102CF5D37CB0044870BD0000CD
:10344000257325732573257300000000AAFD002055
:103450002530327800000000114808B5016841F4B9
:1034600000110160016801F400110091016841F44C
:10347000800101600068002200F4800000900521B6
:103480000B20FDF767FE0B20FDF756FE00220521FD
:103490000E20FDF75FFEBDE808400E20FDF74CBE94
:1034A0003038024010B5A4B002F000FC24221849C4
:1034B0006846FCF728FF6A460021164802F032FCF5
:1034C000154C13492422A060243109A8FCF71BFFE6
:1034D00009AA0021114802F025FC0D49E0602422D0
:1034E000483112A8FCF70FFF12AA00210C4802F085
:1034F00019FC0749206124226C311BA8FCF703FF4B
:103500001BAA0021074802F00DFC606124B010BD29
:10351000047D00089954000800000020616C000838
:10352000E5680008ED6B00082DE9F04F87B0142125
:103530006846FCF701FF3C480024016841F00401A3
:103540000160016801F004010591016841F020016A
:103550000160016801F020010591016841F08001DE
:103560000160016801F080010591016841F00101ED
:103570000160016801F001010591016841F002015B
:103580000160016801F002010591016841F0080144
:1035900001600068DFF8948000F0080042F2100536
:1035A0000590002229464046FDF712FDDFF8809085
:1035B0004EF20406002231464846FDF709FDDFF8C9
:1035C00074A04FF48877002239465046FDF700FD7D
:1035D000DFF864B0002217215846FDF7F9FC00958A
:1035E0000125CDE90154694640460394FDF70AFCE4
:1035F0000096CDE90154694648460394FDF702FC64
:103600000097CDE90154694650460394FDF7FAFB53
:1036100017200090CDE90154694658460394FDF700
:10362000F1FB07B0BDE8F08F3038024000080240DF
:10363000001C02400000024000040240094810B58E
:10364000074901600621416040F6FF718160FDF786
:10365000CBFC002803D0BDE81040FDF7EAB910BD4F
:1036600000300040EC01002010B5002205210C20A4
:10367000FDF770FD0C20FDF75FFD002205210D20F8
:10368000FDF768FD0D20FDF757FD002205211020F4
:10369000FDF760FD1020FDF74FFD002205212620DB
:1036A000FDF758FD2620FDF747FD002205212720C4
:1036B000FDF750FD2720FDF73FFD002205213420B6
:1036C000FDF748FD3420FDF737FD002205213920A4
:1036D000FDF740FD3920FDF72FFD00220521472091
:1036E000FDF738FD4720FDF727FD00220521522078
:1036F000FDF730FD5220FDF71FFD0022052135208A
:10370000FDF728FD3520FDF717FD002205213620A5
:10371000FDF720FDBDE810403620FDF70DBD00008F
:103720000B4810B50949016000217F22C0E9011250
:10373000FF22C0E9032141618161FEF781F9002880
:1037400003D0BDE81040FDF774B910BD002800405B
:10375000F8010020104810B50E4901604FF4827145
:10376000416000218160C1604FF400720161C0E9D5
:1037700005122822C0E90721416281620A21C16243
:10378000FEF7B5FA002803D0BDE81040FDF751B9A7
:1037900010BD00000030014018020020104810B594
:1037A0000E4901604FF48271416000218160C16067
:1037B0004FF400720161C0E905122022C0E907211F
:1037C000416281620A21C162FEF791FA002803D0AA
:1037D000BDE81040FDF72DB910BD000000380040D5
:1037E000700200201CB500240E4800940C4901947E
:1037F00001605921C0E9011463218461C160FEF7B1
:1038000079FD08B1FDF715F9009469460548019462
:10381000FEF74FFD002801D0FDF70BF91CBD00009D
:1038200000100040C80200200C4810B50A49016091
:103830004FF4E1314160002181600C22C160C0E998
:1038400004128161C161FEF71BFF002803D0BDE8AF
:103850001040FDF7EEB810BD004C004008030020FA
:103860000C4810B50A4901604FF4E1314160002174
:1038700081600C22C160C0E904128161C161FEF760
:10388000FFFE002803D0BDE81040FDF7D2B810BD00
:1038900000500040480300200C4810B50A49016060
:1038A0004FF4E1314160002181600C22C160C0E928
:1038B00004128161C161FEF7E3FE002803D0BDE878
:1038C0001040FDF7B6B810BD007800408803002016
:1038D0000C4810B50A4901604FF4E1314160002104
:1038E00081600C22C160C0E904128161C161FEF7F0
:1038F000C7FE002803D0BDE81040FDF79AB810BD00
:1039000000100140C80300200C4810B50A490160AE
:103910004FF4E1314160002181600C22C160C0E9B7
:1039200004128161C161FEF7ABFE002803D0BDE83F
:103930001040FDF77EB810BD004400400804002090
:103940000C4810B50A4901604FF4E1314160002193
:1039500081600C22C160C0E904128161C161FEF77F
:103960008FFE002803D0BDE81040FDF762B810BDFF
:1039700000480040480400200C4810B50A49016086
:103980004FF416514160002181600C22C160C0E9F2
:1039900004128161C161FEF773FE002803D0BDE807
:1039A0001040FDF746B810BD001401408804002007
:1039B000FEE7704703211420FCF792BF10B51420D6
:1039C00000F062F9800705D10321BDE81040142002
:1039D00000F028BA10BD70B5064608219CB000243E
:1039E0000846FCF77DFF00210D2001F04DF88021F5
:1039F0000E20FCF775FF93208DF8040020208DF831
:103A000005001AA801AB0090022219460C2000F014
:103A100017F805000DD1002101A8425C7254425CE8
:103A2000491C5440C9B20429F7D3405CA04200D0DD
:103A3000FE2580210E2000F0F5F91CB0284670BD4F
:103A40002DE9FF5F0027FE25DDF838A016468B46DE
:103A50008146B8460C2805D0B9F10E0F05D11227C2
:103A6000102001E077273020804647F080010220B7
:103A700001F00AF880210420FCF732FF0021012028
:103A800001F002F880210A2000F0CCF9002405E0C2
:103A90001BF80410092000F0F7FF641CB442F7D3B0
:103AA0004946012000F0F0FFB9F10C0F03D180214D
:103AB0000D2000F0B7F94FF41676042000F0E4F87A
:103AC0000446761E04D0E00702D114EA080FF4D0B1
:103AD00080210D20FCF704FF36B1062000F0D4F859
:103AE00010F01B0F0CD0FE2580210C2000F09AF95D
:103AF0000021012000F0C8FF04B02846BDE8F09F77
:103B000000253C40E00700D0FF25B9F10C0FEBD1B8
:103B10000A2000F0B9F804460C2000F0B5F810F0C7
:103B200007004FEAC40101D008390144CAF8001067
:103B300024B1642C04D96424002603E00124FBE7AB
:103B4000002605E0092000F09FF803998855761CAF
:103B5000A642F7D3C8E730B50C46054608219BB00E
:103B60000846FCF7BDFE07210D2000F08DFF032164
:103B7000142000F057F91AA801AB00908DF80450FA
:103B8000012219460C20FFF75BFF10B91A99102982
:103B900002D0FE201BB030BD9DF8041021709DF8AE
:103BA00005106170F6E7000010B51D4C01221021D0
:103BB0002046FDF70DFA0A20FDF712F90022102128
:103BC0002046FDF705FA0A20FDF70AF90122102127
:103BD0002046FDF7FDF90A20FDF702F9022000F06A
:103BE00053F80F21012000F04FFF3D21112000F07C
:103BF0004BFF1E212D2000F047FF00212C2000F05C
:103C000043FF8D212A2000F03FFF3E212B2000F0B2
:103C10003BFF4021152000F037FF002010BD0000C1
:103C200000080240010901EB810100F00F0000EBE8
:103C30004100C0B27047002102E00A38C0B2491CFE
:103C40000A28FAD2090740EA1160704770B50446A5
:103C50000068C168490614D44FF0FF31C160FDF718
:103C6000BDF905464FF47A7607E000BFFDF7B6F9D7
:103C7000401BB04201D9032070BD2068C0684006D7
:103C8000F4D5002070BD000070B50C4D0446002234
:103C900010212846FDF79CF97E2000EA440040F000
:103CA000800000F0A7F800F03DF804460122102142
:103CB0002846FDF78DF9204670BD00000000024047
:103CC00038B504464068B0F5827F0BD1A068B0F5E6
:103CD000004F02D0B0F5806F04D12068036823F054
:103CE000400303600B46009200228021204600F032
:103CF00037F8002804D0606D40F020006065032094
:103D000038BD38B50B46009204460022802100F0F1
:103D100027F8002804D0606D40F020006065032083
:103D200038BD000008B54FF6FF730122694605480B
:103D3000FEF776F818B104A000F0C0FE08BD9DF8AB
:103D4000000008BD180200207370692073656E645E
:103D50002072656164206661696C0D0A00000000D4
:103D60002DE9F0411D4617460E460446DDF8188041
:103D700008E0681C06D0FDF731F9A0EB0800A84266
:103D80000BD255B12068806836EA000030D00020A0
:103D9000B842EED10020BDE8F0812068416821F0F2
:103DA000E00141606068B0F5827F0BD1A068B0F59A
:103DB000004F02D0B0F5806F04D12068016821F077
:103DC00040010160A06AB0F5005F09D12068016878
:103DD00021F4005101602068016841F40051016044
:103DE000012084F85100002084F850000320D2E71D
:103DF0000120CDE701B54FF6FF7301226946044863
:103E0000FEF7B6F8002802D002A000F057FE08BD69
:103E1000180200207370692073656E642066616902
:103E20006C0D0A0070B50C460546FFF72DFF40EA01
:103E300004012846BDE8704000F026BE10B55020B1
:103E400080F31188BFF34F8FBFF36F8F03F0A8FD8E
:103E500018B104494FF080500860002080F31188A9
:103E600010BD000004ED00E070B59EB03021684642
:103E7000FCF762FA142118A8FCF75EFA30210CA8AE
:103E8000FCF75AFA20480025016841F08051016092
:103E9000006800F080501D901C48016841F44041CA
:103EA00001600068022400F440401D900D20009045
:103EB0004FF48030019001200290CDE90504800587
:103EC0000F26CDE90706D820CDE9090404200B9080
:103ED0006846FDF7D3FBFDF76FF94FF4A050CDE92D
:103EE0001A50E002CDE918641C90052118A8FDF7CE
:103EF000B5FA20200C90C00016900CA8FDF794F99C
:103F0000FDF744FB1EB070BD403802400070004019
:103F10001048016841F4700101600F48016841F0E8
:103F2000010101600C4A00210832116002680B4B4C
:103F30001A400260031D0A4A1A60026822F48022B5
:103F4000026005480C30016002495806803908605B
:103F50007047000088ED00E000380240FFFFF6FEE9
:103F6000103000242DE9F04FB44CB64D87B02178C5
:103F7000DFF8CC92012605F16C0000274FF40058C1
:103F80004EF6476A0690012901D019B152E0AE48B9
:103F900007704FE002F018FC01281BD0069802F0D1
:103FA0002FFF012816D001F0B7FA64210698FCF71C
:103FB000C3F901F0D3FA322001F05EFEA34AA4480F
:103FC00002F1140102F03CFFD5F87012514535D9C9
:103FD000E67135E09FA0069900F070FD26706670CE
:103FE000A670E670A1A000F069FDC5F80C72C5F8D6
:103FF0001072C5F86472012241464846C5F86872DD
:10400000FCF7E6FF642001F037FE002241464846F7
:10401000FCF7DEFF642001F02FFE012241464846F6
:10402000FCF7D6FF642001F027FE002241464846F7
:10403000FCF7CEFFE079012802D01EE0E7711CE01A
:10404000012241464846FCF7C3FF642001F014FEFC
:10405000002241464846FCF7BBFF642001F00CFEFD
:10406000012241464846FCF7B3FF642001F004FEFC
:10407000002241464846FCF7ABFF6078DFF8CC8170
:10408000DFF8F8B1A8F1C2084FF00209012803D007
:10409000A178012905D006E002F05AFE03206070E5
:1040A0002EE0032803D0E07801280FD028E0CDE9E6
:1040B000008BD5E987127248069B01F0EBFBF8B143
:1040C00070A000F0FBFC84F8029022E001F046FAB8
:1040D0001E2001F0D1FDD5F86402401CC5F8640231
:1040E00064280DD96DA0D5F80C1200F0E7FCD5F8C6
:1040F0000C12514500D9E771C5F8647284F8039039
:10410000A078032802D0042824D002E0E078022816
:104110001AD02079012825D0607901283CD0A079D7
:1041200001286DD003280CD163A000F0C7FC6421E6
:104130000698FCF701F9A7712770C5F81072C5F849
:104140000C7207B0BDE8F08F60A000F0B7FCA7705C
:104150002671F6E72770A770E7706771277167709F
:10416000A771EEE75EA000F0A9FC277101F072FDD7
:1041700042F6E06001F080FD02F06AFD43F698250A
:10418000284601F079FD01F05FF9284601F074FD41
:1041900002F05EFD6671D4E701F0E0F90A2001F05B
:1041A0006BFDD5F86802401CC5F86802B0F5FA7FCF
:1041B000C7D9C5F86872D5E98310421A1E2A14D9E6
:1041C0000844FCF755F99FED4A1B53EC112BFCF703
:1041D000E0F8C5E98A0148A005F5037500F06EFC1A
:1041E0006771A6716F602F60ABE747A000F066FCB7
:1041F0002770677107B02248BDE8F04F01F036B96B
:1042000045A000F05BFC02F0A3FDD5E994120F4835
:1042100003AB2C38CDF8008083E80700CDE901B668
:10422000D5E9871295ED8A0B1548069B01F0DAFB5C
:10423000002886D084F8069083E70000DE01002085
:10424000001C0240D0130120D6DC00202C160120D7
:1042500040ED002042696E5F53797374656D2E6185
:1042600063636F756E743D25730D0A00BBF1B5C3B2
:10427000D3C3BBA7CAFDBEDD0D0A0000E9330008A9
:104280006CCC002073656E642075736572206A695A
:10429000616F6E69616E200D0A00000042696E5FF9
:1042A00053797374656D2E7765696768745F6C61A7
:1042B00073743D25640D0A006C69756368656E67EB
:1042C00077616E6368656E670D0A000075736572CD
:1042D000206973207375636573730D0A0000000015
:1042E000646F6F72206973206F70656E000000004C
:1042F0000000000000408F40D2D1BEADB6AAC0ACD5
:10430000BBF80D0A00000000D3C3BBA7C3BBB6AA0D
:10431000C0ACBBF80D0A0000CDC6CBCDC0ACBBF81D
:10432000D0C5CFA20D0A00007FB51C4D18A0204CAF
:10433000C5F81C021AA0C5F8200294F8D70494F816
:10434000DA3494F8D92494F8D8148DE80F0005F5E0
:104350000C7094F8D634B4F8D42416A1064604F2AE
:10436000D44405F5077500F0B9FB314619A000F0FB
:10437000A5FBA1796079CDE900012379E278A178E4
:10438000208802F037FC1AA068631BA0A8637FBDD9
:10439000313034353031343938000000D013012049
:1043A0007465737431323334353637383930000040
:1043B000A40E0120323025642D253032642D2530A5
:1043C000326420253032643A253032643A25303266
:1043D0006400000042696E5F53797374656D2E68E6
:1043E000616E646C655F74696D653D25730D0A00CF
:1043F0007465737400000000330000000148FDF78D
:10440000BBBF0000080700200148FDF7B5BF000052
:10441000C8020020F0B50268254C264D264E274FD5
:10442000274B4FF0804CA04209D0604507D0A842EE
:1044300005D0B04203D0B84201D0984204D122F056
:10444000700E4A6842EA0E02A0421BD0604519D0A5
:10445000A84217D0B04215D0B84213D0984211D01C
:10446000184DA8420ED0184DA8420BD0174DA842A7
:1044700008D0174DA84205D0164DA84202D0164DBF
:10448000A84203D122F44075CA682A434D6922F03C
:1044900080022A4302608A68C2620A688262A0427D
:1044A00001D0984201D10969016301214161F0BD48
:1044B000000001400004004000080040000C0040E3
:1044C0000004014000400140004401400048014018
:1044D00000180040001C00400020004010B50449B6
:1044E000044800F0B2FABDE810400248FEF740B8B8
:1044F00038FE0020080300200148FEF739B800000C
:10450000480300200148FEF733B80000880300206C
:1045100010B5806B0021C185C184FEF728F810BD5D
:1045200070B5846B2068406994F83910C0F3C010EE
:104530000025212904D118B1E584204600F046F871
:104540002068406994F83A10C0F38010222904D101
:1045500018B1E585204600F02BF8E06B40F0100024
:10456000E0632046FEF703F870BD10B50146806B8E
:1045700009680968C90513D40021C1850168CA68A2
:1045800022F48072CA6001684A6922F001024A611D
:1045900001684A6922F040024A61202180F83A10FD
:1045A000FEF792FA10BD10B5806BFEF78EFA10BDC3
:1045B0000168CA6822F49072CA6001684A6922F0F0
:1045C00001024A61202180F83A1070470168CA68E8
:1045D00022F0C002CA60202180F83910704710B55F
:1045E00090F83A10222901D0022010BD8168B1F55F
:1045F000805F11D00169002901681FD0496801F06E
:104600007F03816A4A1C82620B70C18D491E0904B6
:10461000090CC18518D02BE00269816A002A026862
:10462000526805D0D2B20A80816A491C8162ECE7E7
:10463000C2F308020A80816A891CF7E74A68816A26
:104640004B1C83620A70E0E70168CA6822F020020E
:10465000CA600168CA6822F48072CA6001684A6947
:1046600022F001024A61202180F83A10FEF72CFA6C
:10467000002010BD2DE9F041044600680169E268A0
:1046800021F44051114301612169A068E2690843A6
:104690006169114322680843D16849F20C63994368
:1046A0000143D16020684169A26921F4407111433E
:1046B0004161E2696425B2F5004F97489749226845
:1046C0004FF032083FD08A4201D082427CD1FCF7C1
:1046D00093FF00EBC00101EB001061688900B0FBA3
:1046E000F1F6FCF789FF00EBC00101EB00106168F7
:1046F0008900B0FBF1F0B0FBF5F06FF01801484312
:1047000006EB800108EB0110B0FBF5F000F0F006BD
:10471000FCF772FF00EBC00101EB0010616889003B
:10472000B0FBF1F0B0FBF5F006EB0016FCF764FF10
:1047300000EBC00101EB001061688900B0FBF1F7EC
:10474000FCF75AFFD2E08A4201D082423DD1FCF709
:1047500053FF00EBC00101EB001061684900B0FBA2
:10476000F1F0B0FBF5F00601FCF746FF00EBC001ED
:1047700001EB001061684900B0FBF1F7FCF73CFF6A
:1047800000EBC00101EB001061684900B0FBF1F0E3
:10479000B0FBF5F06FF01801484307EB800108EB20
:1047A000C100B0FBF5F000F0F80006EB4006FCF7A6
:1047B00023FF00EBC00101EB001061684900B0FB72
:1047C000F1F7FCF719FF3CE055E0FCF705FF00EBC3
:1047D000C00101EB001061684900B0FBF1F0B0FBD3
:1047E000F5F00601FCF7F8FE00EBC00101EB00104C
:1047F00061684900B0FBF1F7FCF7EEFE00EBC00189
:1048000001EB001061684900B0FBF1F0B0FBF5F07E
:104810006FF01801484307EB800108EBC100B0FBC3
:10482000F5F000F0F80006EB4006FCF7D5FE00EBD3
:10483000C00101EB001061684900B0FBF1F7FCF723
:10484000CBFE00EBC00101EB001061684900B0FB3A
:10485000F1F0B0FBF5F06FF01801484307EB800171
:1048600008EBC100B0FBF5F000F007002168304410
:104870008860BDE8F081FCF7AFFE00EBC00101EB02
:10488000001061688900B0FBF1F6FCF7A5FE00EBB3
:10489000C00101EB001061688900B0FBF1F0B0FBD2
:1048A000F5F06FF01801484306EB800108EB0110AA
:1048B000B0FBF5F000F0F006FCF78EFE00EBC00157
:1048C00001EB001061688900B0FBF1F0B0FBF5F07E
:1048D00006EB0016FCF780FE00EBC00101EB0010B8
:1048E00061688900B0FBF1F7FCF776FE00EBC001D0
:1048F00001EB001061688900B0FBF1F0B0FBF5F04E
:104900006FF01801484307EB800108EB0110B0FB82
:10491000F5F000F00F00A9E700140140001001407D
:1049200090F83910212901D0022070478168B1F533
:10493000805F016A0BD04A1C0262026809785160EC
:10494000C18C491E0904090CC1840ED017E00988E6
:104950000268C1F30801516001690029016A02D0AF
:10496000491C0162ECE7891CFBE70168CA6822F078
:104970008002CA600068C16841F04001C160002047
:1049800070472DE9F041984617460E460446069DAD
:104990001DE0681C1BD02DB1FCF720FBA0EB08002C
:1049A000A84214D92068C16821F4D071C160206880
:1049B000416921F001014161202084F8390084F827
:1049C0003A00002084F838000320BDE8F081206818
:1049D000006836EA000004D00020B842D9D0002098
:1049E000F3E70120F9E700000148FDF7C1BD000031
:1049F000C803002010B50449044800F026F8BDE8BB
:104A000010400248FDF7B4BDD6DC002008040020A9
:104A100010B50449044800F018F8BDE810400248F9
:104A2000FDF7A6BD6CCC00204804002010B5044959
:104A3000044800F00AF8BDE810400248FDF798BDB0
:104A400040ED002088040020FEE738B505460068E8
:104A50000C460168C943C90614D401684068009037
:104A60002846FDF758FD686B00684068C0F5006097
:104A700060800120C2022070A11D2846BDE8384098
:104A8000FDF7D6BF38BD000070B50B4D0E4604468D
:104A9000002210212846FCF79BFA7E2000EA440001
:104AA000FFF7A8F93046FFF7A5F92846BDE87040A2
:104AB00001221021FCF78CBA000002400FB4054B14
:104AC00010B503A9044A029800F0FEF810BC5DF886
:104AD00014FB0000B1540008E80100200FB4084B9B
:104AE00010B504A902AA039800F0EEF8044602A942
:104AF000002000F080FC204610BC5DF814FB000094
:104B0000F75300080907090E002804DB00F1E02034
:104B100080F80014704700F00F0000F1E02080F8EA
:104B2000141D704702E008C8121F08C1002AFAD1FC
:104B300070477047002001E001C1121F002AFBD11D
:104B4000704700002DE9FF5F82B00021DDE90430ED
:104B5000020DDDF840B0034318D044F61050A2F225
:104B6000FF3242431514119801281FD0A5EB0B000A
:104B7000401C5FEA000A4FF000064E4FDFF8389104
:104B8000B046504615D5CAF1000413E0119801242F
:104B90004AA3012801D16FEA0B010298119AC0E9DA
:104BA0000031C0E9024206B0BDE8F09FCBF1000041
:104BB000DFE704460021404A491842EB0450CDE9A2
:104BC000001012E0E00707D032463B464046494617
:104BD000FBF794FD8046894632463B46104619460F
:104BE000FBF78CFD06460F466410002CEAD1DDE988
:104BF0000401DDE90023BAF1000F06DAFBF77EFDC0
:104C000042464B46FBF77AFD05E0FBF7C2FB424606
:104C10004B46FBF7BEFB04460E460022284BFBF733
:104C2000F7FD03D84FF0FF30014607E00022254B87
:104C300020463146FBF7BBFCFBF7D2FD102409E010
:104C4000002C0ADB0A220023FBF72CFB039B3032EB
:104C50001A55641E50EA0102F2D1641C039AC4F191
:104C600011031444119A012A03D0012208430DD1E3
:104C70000AE0084304D000204FF0110B119072E7B6
:104C8000A3EB0B056D1E0DE05B4504DD4FF000024C
:104C900005F1010504E003DA4FF00002A5F101057A
:104CA000002AECD002981199C0E90231C0E9004510
:104CB00079E70000000014400000F03F30000000E1
:104CC0000000F0430000E03F2DE9FF4F95B09B4608
:104CD0008946064600250FE2252877D1002427467D
:104CE000F84A0121059400E0044316F8013F203BF7
:104CF00001FA03F01042F7D130782A2811D06FF072
:104D00002F033078A0F13002092A16D8059A44F012
:104D1000020402EB820203EB42021044761C05906F
:104D2000EFE759F8042B0592002A03DA504244F4C5
:104D30000054059044F00204761C30782E2816D1D9
:104D400016F8010F44F004042A280DD06FF02F024A
:104D50003078A0F13003092B09D807EB870302EB69
:104D60004303C718761CF3E759F8047B761C3078A8
:104D70006C280FD006DC4C2817D068280DD06A2884
:104D800014D104E0742810D07A280FD10DE044F437
:104D900000140AE044F4801401E044F440147278F2
:104DA000824202D104F58014761C761C3078662885
:104DB0000BD013DC582877D009DC002875D04528A3
:104DC000F6D04628F4D047281AD19DE118E0632890
:104DD00035D0642879D0652812D195E1702873D038
:104DE00008DC6728F1D069286FD06E280DD06F28B5
:104DF00006D1B5E073282CD0752875D0782874D0EA
:104E00005A46179990476D1C75E1C4F30250022869
:104E100009D003280DD0D9F8001004280DD00D605A
:104E200009F1040967E1D9F80010EA17C1E9005255
:104E3000F6E7D9F800100D80F2E70D70F0E719F8E9
:104E4000041B8DF8001000208DF80100EA460120B7
:104E500003E059F804AB4FF0FF3061074FF0000159
:104E600002D40DE008F101018846B9420FDA80450D
:104E7000F8DB1AF808100029F4D108E008F1010164
:104E800088468142FADB1AF808100029F6D1059805
:104E90005B46A0EB080721463846179A00F094FAC3
:104EA000284400EB080507E04DE029E10DE01AF881
:104EB000010B5A4617999047B8F10108F7D25B46A3
:104EC00021463846179A13E142E00A220092C4F3C1
:104ED00002524FF0000A022A08D059F804CB032AE4
:104EE0004FEAEC710AD00DE029E02AE009F1070150
:104EF00021F00702F2E802C1914609E00FFA8CFCAA
:104F00004FEAEC71042A03D14FFA8CFC4FEAEC71A2
:104F1000002907DA0A460021DCF1000C61EB0201EE
:104F20002D2202E0220504D52B228DF80420012237
:104F300003E0E20701D02022F7E7904659E00A217A
:104F400002E010220DE010214FF0000A00910BE06A
:104F500010224FF0000A44F004040827009203E0F6
:104F600008224FF0000A0092C4F30252022A05D030
:104F700059F804CB0021032A08D009E009F1070100
:104F800021F00702F2E802C1914605E01FFA8CFC0D
:104F9000042A01D10CF0FF0C4FF00008220728D59D
:104FA000702806D0009B83F0100353EA0A0305D053
:104FB0000EE040228DF80420012208E05CEA0102A4
:104FC00006D030228DF804208DF80500022290468C
:104FD000009B83F0080353EA0A030AD15CEA01024A
:104FE00001D1620705D530228DF804204FF0010869
:104FF0007F1E582804D034A003900EA802900DE024
:1050000036A0F9E753466046009AFBF74BF9844611
:105010000398825C0298401E029002705CEA0100D4
:10502000F0D1029806A9081A00F1200A600702D5FB
:1050300024F4803400E00127574502DDA7EB0A0085
:1050400000E0002000EB0A01009005984144401A5E
:105050000590E00306D45B462146179A059800F0B8
:10506000B3F90544002706E001A85A46C05D179928
:1050700090476D1C7F1C4745F6DBE0030CD55B4673
:105080002146179A059800F09FF9054404E0302066
:105090005A46179990476D1C0099481E00900029A8
:1050A000F5DC08E0029802995A460078491C029102
:1050B000179990476D1CBAF10001AAF1010AF1DCC1
:1050C00065E10000092801003031323334353637CC
:1050D0003839616263646566000000003031323344
:1050E00034353637383941424344454600000000E4
:1050F00000F058F90544761C307800287FF4ECADB8
:1051000019B02846BDE8F08F620700D4062709F1E0
:10511000070222F0070CFCE80223E14603F00048F6
:105120005FEA080C02D00FF2702C0DE05FEA045C1D
:1051300002D50FF2682C07E05FEAC47C02D00FF2C0
:10514000602C01E0AFF2700C4FF0FF3823F0004309
:10515000CDF850C065280CD006DC452809D046287B
:105160001DD047283DD13DE0662818D067287ED164
:1051700038E00021112F01DB112000E0781CCDE97F
:10518000000106A90EA8FFF7DDFCDDE90F010E9A6C
:1051900003910021009207F1010A04914DE04FF0C4
:1051A00000400097CDE9011006A90EA8FFF7CAFC40
:1051B000DDE90F0203920E9B11990022DDF80CA08D
:1051C0000093049211B9791C00EB010AB7EB0A00B5
:1051D00004D4C0F1FF3007F1010A0490AAEB0700E4
:1051E000019044E0012F00DA01270021112F01DD99
:1051F000112000E03846CDE9000106A90EA8FFF70E
:10520000A1FCDDE90F010E9A0391002104910092A7
:10521000BA4621070CD40399514500DA8A46BAF1FF
:10522000010F05DD009AAAF10101515C302908D077
:10523000B84202DA10F1040F06DA0121CDE90110BB
:1052400015E0AAF10101E9E7002805DC0499014411
:105250000491AAEB000102E0411C514500DD8A46A1
:105260000499401A401C01904FF000400290200722
:1052700004D40198504501DBCDF8048000208DF85E
:105280004F0002980DF14F07B0F1004F25D02B20B1
:105290000E9002984FF0020800280CDA404202906B
:1052A0002D200E9007E00A210298FBF7EEF830312E
:1052B000029007F8011DB8F10001A8F10108F2DC25
:1052C00002980028EFD1791E0E980870307800F00F
:1052D000200040F0450007F8020D12A8C01B00F1A5
:1052E00007081498007800B1012000EB0A0101982A
:1052F00001EBE07105984144401A401E0590E0031F
:1053000006D45B462146179A059800F05DF80544DF
:105310001498007818B15A46179990476D1CE0030D
:1053200024D55B462146179A059800F04DF80544B0
:105330001CE00498002807DBDDE90301884203DD57
:105340000098405C179901E0179930205A46904721
:10535000049805F10105401C04900198401E01903D
:1053600004D12E205A46179990476D1CBAF10001BE
:10537000AAF1010ADDDC05E017F8010B5A4617997E
:1053800090476D1CB8F10001A8F10108F4DC5B4600
:105390002146179A0598ABE62D0000002B0000006F
:1053A000200000002DE9F041044600251E46174666
:1053B000880404D405E039462020B0476D1C641EE3
:1053C000F9D52846BDE8F0812DE9F04104460025D5
:1053D0001E469046C80301D5302700E020278804E8
:1053E00004D505E041463846B0476D1C641EF9D52A
:1053F0002846BDE8F0810A68531C0B6010707047A6
:1054000070B50D4800F0E0FC0C4C0D4DE078012823
:1054100005D12A46A5F150010A4801F011FD607935
:10542000012807D12A46BDE87040054905484C3996
:1054300001F006BD70BD00006CCC0020DE01002034
:105440002C16012040ED002010B5074C01229103DD
:105450002046FBF7BDFD2046BDE8104000224FF47A
:105460000041FBF7B5BD0000001C024010B504462A
:105470000346C82206A1074801F006FB234605485B
:10548000C822BDE8104002A1333801F0FDBA000087
:105490004F4B00006801002001F048FA012000F0A5
:1054A000EBFBF9E70149002048607047000000204D
:1054B00013B54FF0FF33012269460248FDF706FBA2
:1054C00000981CBDC80300200148406870470000D8
:1054D0000000002010B504460346C82209A10A486E
:1054E00001F0D2FA08482346C82208A11F3001F073
:1054F000CBFA23460448C822BDE8104001A1293058
:1055000001F0C2BA4F4B0000990100202B434E54CA
:10551000503A2031000000001CB528210C48FAF751
:105520000BFF00220B490C48FCF73CFA084900220B
:1055300014390948FCF758FA05491439D1E903022E
:10554000CDE9000203480EC9006801F0ADFB1CBDA7
:1055500094130120CD010020F80100200EB5A320F6
:105560008DF8000000208DF80100A2208DF80200C7
:10557000A4208DF80300A5208DF8040005224FF625
:10558000FF7369460148FDF7A1FA0EBD88040020AB
:10559000012211460148FBF71BBD00000004024038
:1055A000144805A1C0F86C1213A1C0F8CC1421A1B5
:1055B000C0F8D0147047000041542B485454505048
:1055C0004152413D2255524C222C22726F6F6D2E5A
:1055D00079696A696E676D656469612E636F6D2FA5
:1055E0006F70656E2F6765745F696E666F220D0A56
:1055F00000000000A40E012041542B485454505088
:105600004152413D22434F4E54454E54222C22617B
:1056100070706C69636174696F6E2F782D7777771E
:105620002D666F726D2D75726C656E636F64656447
:10563000220D0A0041542B48545450414354494FC1
:105640004E3D310D0A00000006A1144814A2C0F816
:10565000CC24C0F86C1221A2C0F8D02424A0FFF7FB
:105660002DBA000041542B48545450504152413DF2
:105670002255524C222C22726F6F6D2E79696A6905
:105680006E676D656469612E636F6D2F6F70656EF7
:105690002F70757368220D0A00000000A40E01200F
:1056A00041542B48545450504152413D22434F4E97
:1056B00054454E54222C226170706C696361746988
:1056C0006F6E2F782D7777772D666F726D2D7572CF
:1056D0006C656E636F646564220D0A0041542B484B
:1056E000545450414354494F4E3D310D0A0000007F
:1056F00067736D5F706172616D2E6765745F696E4F
:10570000666F5F6170695F706174683D257300004A
:1057100010B5114C06A01149E06004F11000FAF731
:105720002FFE0FA0C4F8CC041CA0C4F8D00410BDF8
:1057300041542B48545450504152413D2255524CF3
:10574000222C226170692E6B3738302E636F6D3AD0
:1057500038382F220D0A0000A40E0120FC7D00081D
:1057600041542B48545450504152413D22434F4ED6
:1057700054454E54222C226170706C6963617469C7
:105780006F6E2F782D7777772D666F726D2D75720E
:105790006C656E636F646564220D0A0041542B488A
:1057A000545450414354494F4E3D310D0A000000BE
:1057B00070B5B2B00546FFF7ABFF2B46C8222CA14F
:1057C0002C4801F061F92B482B46C82228A1203033
:1057D00001F05AF927482B46C82225A13D3001F097
:1057E00053F924482B46C82221A15B3001F04CF923
:1057F00020482B46C8221EA1693001F045F91E4CF5
:105800002B4605221AA1E06801F03EF900282CD0B1
:105810002B46052216A1D4F8CC0401F035F9002856
:1058200023D004F110000646FAF7A3FD024613A1A7
:105830006846FFF753F92B4605220DA1684601F093
:1058400023F9002811D02B46052209A1304601F08A
:105850001BF9002809D02B46052205A1D4F8D00455
:1058600001F012F9002800D0012032B070BD000014
:105870004F4B0000E9000020A40E012041542B48AA
:10588000545450444154413D25642C313030303023
:105890000D0A00002DE9F043B5B01E46DDE93C5786
:1058A00090460C468146FFF77BFE2B46324641462A
:1058B0002046B847CDE900053D48334622462FA192
:1058C0000546FFF70BF94B46C8223AA13A4801F0CA
:1058D000DBF839484B46C82236A1203001F0D4F815
:1058E00035484B46C82233A13D3001F0CDF832484F
:1058F0004B46C8222FA15B3001F0C6F82E484B461C
:10590000C8222CA1693001F0BFF82C4C4B4605226F
:1059100028A1D4F86C0201F0B7F800282AD04B4631
:10592000052224A1D4F8CC0401F0AEF8002821D03F
:105930002846FAF71EFD024621A102A8FFF7CEF87D
:105940004B46052224A102A801F09EF8002811D0A0
:105950004B46FF2217A1284601F096F8002809D0EF
:105960004B46052213A1D4F8D00401F08DF800288D
:1059700000D0012035B0BDE8F08300006170705F99
:1059800069643D2573266163636F756E743D25738D
:1059900026656E63727970745F646174613D25730E
:1059A0002674696D657374616D703D257300000028
:1059B000141101204F4B0000E9000020A40E01202B
:1059C00041542B48545450444154413D25642C319A
:1059D000303030300D0A0000444F574E4C4F414498
:1059E000000000002DE9FF5F2DED020B0D461F4664
:1059F0002DED028BBCB050A9DDE94E6491E8000F9B
:105A00009446B0EE408AF0EE608A33463A466146EC
:105A10002846A0470446014626A0FFF74FF806A9EE
:105A2000264881E8000E8DED048B8DE850012A4652
:105A30003B4621490546FFF751F8FFF705FE204C8C
:105A4000052220A1D4F86C02409B01F01DF800282B
:105A50002AD0D4F8CC0405221AA1409B01F014F8F6
:105A6000002821D02846FAF784FC024616A109A88E
:105A7000FFF734F805221AA109A8409B01F004F8A9
:105A8000002811D032220FA12846409B00F0FCFFD5
:105A9000002809D0D4F8D00405220AA1409B00F0C8
:105AA000F3FF002800D001203CB0BDEC028B06B013
:105AB000BDE8F09F257300004C7E00081411012002
:105AC000A40E01204F4B000041542B485454504425
:105AD0004154413D25642C31303030300D0A0000F6
